:100000000C94E3000C940B010C940B010C940B0169
:100010000C940B010C940B010C940B010C940B0130
:100020000C940B010C940B010C940B010C940B0120
:100030000C940B010C940B010C940B010C940B0110
:100040000C9459070C940B010C94EC030C94B10321
:100050000C940B010C940B010C940B010C940B01F0
:100060000C940B010C940B010000000024002700ED
:100070002A0000000000250028002B0000000007D7
:100080000002010000030406000000000000000060
:1000900000000000230026002900040404040404D6
:1000A0000404020202020202030303030303010227
:1000B00004081020408001020408102001020408F6
:1000C0001020005EBCE2613FDD83C29C7E20A3FD68
:1000D0001F419DC3217FFCA2401E5F01E3BD3E6026
:1000E00082DC237D9FC1421CFEA0E1BF5D0380DE58
:1000F0003C62BEE0025CDF81633D7C22C09E1D430A
:10010000A1FF4618FAA427799BC584DA3866E5BBB7
:100110005907DB856739BAE406581947A5FB7826E5
:10012000C49A653BD987045AB8E6A7F91B45C69817
:100130007A24F8A6441A99C7257B3A6486D85B05C9
:10014000E7B98CD2306EEDB3510F4E10F2AC2F7177
:1001500093CD114FADF3702ECC92D38D6F31B2ECA5
:100160000E50AFF1134DCE90722C6D33D18F0C52D7
:10017000B0EE326C8ED0530DEFB1F0AE4C1291CF89
:100180002D73CA947628ABF517490856B4EA693737
:10019000D58B5709EBB536688AD495CB2977F4AA65
:1001A0004816E9B7550B88D6346A2B7597C94A1497
:1001B000F6A8742AC896154BA9F7B6E80A54D78949
:1001C0006B358519611911241FBECFEFD8E0DEBF52
:1001D000CDBF13E0A0E0B1E0E6E2FFE302C005908E
:1001E0000D92A43BB107D9F725E0A4EBB3E001C021
:1001F0001D92AF37B207E1F710E0C2EED0E004C0C5
:100200002197FE010E94801FC13ED107C9F70E94BD
:10021000D6150C94A91A0C9400000F931F93CF933A
:10022000DF93FC01A685B7858D01005C1F4FE801B7
:100230008881998101968F739927AD014E5B5F4F3D
:10024000EA012881398182179307D1F3E8012881D7
:100250003981A20FB31F6C93A685B785A05CBF4FF1
:1002600011969C938E93A689B7892C9181E090E09A
:10027000078C02C0880F991F0A94E2F7822B8C9397
:1002800081E081A30488F589E02D808180648083EA
:1002900081E090E0DF91CF911F910F910895FC01D3
:1002A00081A1882329F0A489B5898C9186FFFBCF91
:1002B00011A20895FC01A485B585FD01E05CFF4F06
:1002C000208131813296808191812817390779F018
:1002D00080819181A80FB91F8C91208131812F5F7E
:1002E0003F4F2F7333273183208390E008958FEFA2
:1002F0009FEF0895DC011C96ED91FC911D97DF01A5
:10030000A05CBF4F2D913C91119712968D919C91BD
:1003100011972817390739F08D919C91E80FF91F33
:10032000808190E008958FEF9FEF0895FC01248570
:100330003585F901E05CFF4F808191813296208103
:100340003181821B930B8F739927089587E794E07F
:100350000C949601DC01ED91FC910190F081E02D6F
:100360000994CF92DF92EF92FF920F931F93CF9356
:10037000DF936C017B01C0E0D0E000E010E0F7010A
:1003800084819581C817D907C0F4D601ED91FC91FD
:100390000190F081E02DD7012D913C91211531057F
:1003A00029F0D901AC0FBD1F6C9101C060E0C601FE
:1003B0000995080F191F2196E2CFC801DF91CF914F
:1003C0001F910F91FF90EF90DF90CF900895CF9203
:1003D000DF92EF92FF920F931F93CF93DF936C0105
:1003E000EB017B01E40EF51E00E010E0CE15DF0509
:1003F00061F06991D601ED91FC910190F081E02DC1
:10040000C6010995080F191FF1CFC801DF91CF91DF
:100410001F910F91FF90EF90DF90CF900895089576
:100420003FB7F8948091B9039091BA03A091BB03B0
:10043000B091BC0326B5A89B05C02F3F19F00196CB
:10044000A11DB11D3FBFBA2FA92F982F8827820F5A
:10045000911DA11DB11DBC01CD0142E0660F771FAA
:10046000881F991F4A95D1F708956115710579F094
:10047000FB0101900020E9F73197AF01461B570BB4
:10048000DC01ED91FC910280F381E02D099480E084
:1004900090E008958F929F92AF92BF92CF92DF9299
:1004A000EF92FF920F931F93CF93DF93CDB7DEB7F9
:1004B000A1970FB6F894DEBF0FBECDBF6C01142F0D
:1004C000E52FCB01022F19A2223008F40AE07E01A9
:1004D00021E2E20EF11C802E912CA12CB12C612F77
:1004E0007E2FA50194010E94AC1A029F10191124BD
:1004F00081E0E81AF1081A3014F4105D01C0195CAB
:10050000F7011083122FE32FCA01232B242B252B55
:1005100031F7B701C6010E943502A1960FB6F894D3
:10052000DEBF0FBECDBFDF91CF911F910F91FF9026
:10053000EF90DF90CF90BF90AF909F908F900895F5
:100540000C9435028F929F92AF92BF92CF92DF921E
:10055000EF92FF920F931F93CF93DF937C018B0158
:100560006C0182E0C80ED11C4701E5E08E0E911CA3
:10057000C0E0D0E0F60141916F0150E060E070E032
:100580002AE0C8010E944A025C016EE2C8010E9492
:10059000AA018A0D9B1DC80FD91FC814D90451F791
:1005A000F701458150E060E070E02AE0C8010E9458
:1005B0004A028C0F9D1FDF91CF911F910F91FF90E9
:1005C000EF90DF90CF90BF90AF909F908F90089565
:1005D0000F931F93CF93DF93EC018881998100974C
:1005E00029F02A813B812617370788F48B016F5F3A
:1005F0007F4F0E94FB1B009761F0998388831B83C8
:100600000A832C813D81232B11F4FC01108281E0AF
:1006100001C080E0DF91CF911F910F910895EF927B
:10062000FF920F931F93CF93DF9300D0CDB7DEB728
:100630008C0169831A82FC01E480F580FFEFEF1AD8
:10064000FF0AB7010E94E802882381F0F8012081A7
:10065000318184819581BE016F5F7F4F820F931F2F
:100660000E94D71CF801F582E48281E00F900F9080
:10067000DF91CF911F910F91FF90EF900895EF922E
:10068000FF920F931F93CF93DF93EC017B018A01BD
:10069000BA010E94E8022881398181110DC021151B
:1006A000310519F0C9010E94631B198218821D824D
:1006B0001C821B821A8206C01D830C83B701C901EC
:1006C0000E94D71CCE01DF91CF911F910F91FF9017
:1006D000EF900895CF93DF93EC01FB018617970706
:1006E000B1F0608171816115710529F044815581F6
:1006F0000E943F030CC088819981009711F00E94ED
:10070000631B198218821D821C821B821A82CE01F1
:10071000DF91CF9108950F931F93CF93DF931F9293
:10072000CDB7DEB790E00496982F88278C01060F8E
:10073000171F0E94080A8FE00E943A0A812F0E9428
:100740003A0A802F0E943A0A80E00E943A0A89837E
:100750000E94060A89810F90DF91CF911F910F911E
:1007600008951F920F920FB60F9211242F933F936B
:100770008F939F93EF93FF9320912F043091300438
:1007800080913104909132042817390731F4809117
:10079000C1008F7D8093C10014C0E0913104F091BD
:1007A0003204E151FC4F2081809131049091320458
:1007B00001968F739927909332048093310420938C
:1007C000C600FF91EF919F918F913F912F910F90D4
:1007D0000FBE0F901F9018951F920F920FB60F9299
:1007E00011242F934F935F938F939F93EF93FF93D6
:1007F0008091C00082FD1CC02091C60080917304CE
:100800009091740401968F739927409175045091CB
:1008100076048417950771F0E0917304F0917404E5
:10082000ED5CFB4F2083909374048093730402C0AB
:100830008091C600FF91EF919F918F915F914F91B1
:100840002F910F900FBE0F901F9018954F925F92AF
:100850006F927F928F929F92AF92BF92CF92DF92D0
:10086000EF92FF920F931F93CF93DF93EC016A01F6
:100870007B01122F9A01AB01C701B6010E941C1F18
:10088000882319F06CEA71E027C046015701E8940B
:10089000B7F82FEF3FEF4FE75FE7C501B4010E94C4
:1008A0001C1F81110DC02FEF3FEF4FE75FE7C50120
:1008B000B4010E944B1D18161CF460EB71E00CC0D3
:1008C0002FEF3FEF4FE75FE4C701B6010E94AA1E7A
:1008D0001816ACF464EB71E0CE01DF91CF911F915B
:1008E0000F91FF90EF90DF90CF90BF90AF909F90CF
:1008F0008F907F906F905F904F900C9435022FEF08
:100900003FEF4FE75FECC701B6010E944B1D87FD2B
:10091000E1CF20E030E0A901C701B6010E944B1DE4
:1009200087FF0AC06DE2CE010E94AA015C01F7FABE
:10093000F094F7F8F09402C0A12CB12C00E060E034
:1009400070E080E09FE3011741F020E030E040E2FA
:1009500051E40E94501D0F5FF6CF9B01AC01C7010F
:10096000B6010E94DF1C2B013C010E94C91D6B01D6
:100970007C010E94F81D9B01AC01C301B2010E94E1
:10098000DE1C2B013C012AE0B701A601CE010E942A
:100990004A027C01EA0CFB1C112339F069E672E083
:1009A000CE010E943502E80EF91ED12EDD20D9F1CC
:1009B00020E030E040E251E4C301B2010E94AF1EEA
:1009C0002B013C010E94C21D4B01770FAA08BB08F6
:1009D000B7FE13C06DE2CE010E94AA018C0144272C
:1009E0005527BA01481959096A097B092AE0CE013D
:1009F0000E944A02800F911F06C02AE0B501A4019F
:100A0000CE010E944A02E80EF91EC501B4010E94FF
:100A1000FA1D9B01AC01C301B2010E94DE1C2B0137
:100A20003C01DA94C3CFC701DF91CF911F910F91A1
:100A3000FF90EF90DF90CF90BF90AF909F908F90FE
:100A40007F906F905F904F9008950F931F93CF9377
:100A5000DF93EC016DE00E94AA018C016AE0CE01F7
:100A60000E94AA01800F911FDF91CF911F910F91DA
:100A700008950F931F93CF93DF93EC010E943502EB
:100A80008C01CE010E942505800F911FDF91CF912F
:100A90001F910F910895CF92DF92EF92FF920F93E3
:100AA0001F93CF93DF9300D000D000D0CDB7DEB737
:100AB0008C016A017B0184EA91E09A8389838091A9
:100AC000530590915405A0915505B09156058B831F
:100AD0009C83AD83BE8340E550E0BE016F5F7F4FD6
:100AE00086E295E00E94830B892B09F47EC068EBB7
:100AF00071E087E794E00E94A002B80187E794E0E4
:100B00000E94A00268E772E087E794E00E94A002DA
:100B1000C701B6010E94C31569EC71E086E295E059
:100B20000E94A0026EEE71E086E295E00E94A002B3
:100B30006FE072E086E295E00E94A00266E172E05A
:100B400086E295E00E94A00269E172E086E295E00B
:100B50000E94A002B80186E295E00E94A00263E331
:100B600072E086E295E00E94A00222E0B701A601B1
:100B700086E295E00E94260461E272E086E295E05A
:100B80000E94A0026CE173E086E295E00E943905C4
:100B900063E272E086E295E00E9439056FE272E05E
:100BA00086E295E00E94A002E0915105F091520585
:100BB0000190F081E02D66E275E081E595E0099510
:100BC00068E373E086E295E00E94390565E372E030
:100BD00086E295E00E94390586E295E00E942505AF
:100BE00086E295E00E94D80A0AC067E472E087E7CF
:100BF00094E00E94A00281E595E00E948F13269662
:100C00000FB6F894DEBF0FBECDBFDF91CF911F911D
:100C10000F91FF90EF90DF90CF900895FC0111822B
:100C20001082138212821582148216826115710558
:100C300051F0FB0101900020E9F73197AF01461B0D
:100C4000570B0C943F03089524EA31E0FC013183F3
:100C5000208312821382148215820895EF92FF92EC
:100C60000F931F93CF93DF93CDB7DEB7E1970FB606
:100C7000F894DEBF0FBECDBF8C017A01CE01019684
:100C800068AB79AB0E9424061C861B8688EE93E035
:100C9000A0E0B0E08D879E87AF87B88B8CE391E0B2
:100CA0009A87898784E08D8BCE0148960E9424061E
:100CB000CE0184960E9424068091E9039091EA0374
:100CC000A091EB03B091EC038CA79DA7AEA7BFA7A3
:100CD0008B839C83AD83BE8318861F82AE014C5DDF
:100CE0005F4F68A979A9CE0101960E94180C813046
:100CF0009105C1F4D801ED91FC910484F585E02DB6
:100D000084EA91E09BA78AA78EA19FA1A8A5B9A577
:100D10008CA79DA7AEA7BFA7A701BE01665D7F4FA9
:100D2000C8010995E1960FB6F894DEBF0FBECDBF9E
:100D3000DF91CF911F910F91FF90EF90089590E078
:100D4000FC01E458FF4F3491FC01E255FF4F249120
:100D5000FC01E656FF4FE491EE2309F43BC0332338
:100D600039F1333091F038F43130A9F0323001F5F7
:100D700084B58F7D12C0363091F03730A1F0343019
:100D8000B9F4809180008F7D03C0809180008F77BF
:100D9000809380000DC084B58F7784BD09C0809199
:100DA000B0008F7703C08091B0008F7D8093B0003A
:100DB000F0E0EE0FFF1FEE58FF4FA591B4918FB7F3
:100DC000F894EC91611103C020952E2301C02E2BC5
:100DD0002C938FBF0895CF93DF9390E0FC01E255F1
:100DE000FF4F2491FC01E656FF4F8491882361F167
:100DF00090E0880F991FFC01E859FF4FC591D491ED
:100E0000FC01EE58FF4FA591B491611109C09FB745
:100E1000F8948881209582238883EC912E230BC03F
:100E2000623061F49FB7F8943881822F80958323D4
:100E30008883EC912E2B2C939FBF06C08FB7F8941C
:100E4000E8812E2B28838FBFDF91CF910895CF9219
:100E5000DF92EF92FF92CF93DF936B017C010E94B0
:100E60001002EB01C114D104E104F10479F00E94F5
:100E700010026C1B7D0B683E7340A0F381E0C81A22
:100E8000D108E108F108C851DC4FECCFDF91CF91D8
:100E9000FF90EF90DF90CF9008952FB7F894609176
:100EA000B5037091B6038091B7039091B8032FBF3B
:100EB00008951F920F920FB60F9211242F933F9314
:100EC0008F939F93AF93BF938091B5039091B60397
:100ED000A091B703B091B8033091B40323E0230F7E
:100EE0002D3720F40196A11DB11D05C026E8230F62
:100EF0000296A11DB11D2093B4038093B503909376
:100F0000B603A093B703B093B8038091B90390914F
:100F1000BA03A091BB03B091BC030196A11DB11D02
:100F20008093B9039093BA03A093BB03B093BC031F
:100F3000BF91AF919F918F913F912F910F900FBED5
:100F40000F901F90189521E0FC018485843009F4EE
:100F500020E0822F0895CF93DF93EC01E881F9819F
:100F60000480F581E02DCE010995892B41F0E881BF
:100F7000F9810680F781E02DCE010995EFCFDF9151
:100F8000CF910895CF93DF931F92CDB7DEB76983DA
:100F9000DC01ED91FC910280F381E02D41E050E015
:100FA000BE016F5F7F4F09950F90DF91CF9108953C
:100FB0000F931F93CF93DF931F92CDB7DEB78C01B2
:100FC000DC01ED91FC910480F581E02D0995892BE0
:100FD00069F021E041E050E0BE016F5F7F4FF80112
:100FE00084850E943315898190E002C08FEF9FEFC6
:100FF0000F90DF91CF911F910F910895FC0184858F
:10100000843011F00C94A71580E090E00895FC0165
:101010008485843021F063E070E00C948B0380E0E1
:101020000895CF93DF93FC0124852430D1F0EC01A7
:101030000E940708843181F0882371F0883161F0C3
:101040008C3161F4E881F9810480F581E02DCE01D5
:10105000099521E0892B19F420E001C021E0822FBD
:1010600001C080E0DF91CF9108956F927F928F92BF
:101070009F92AF92BF92CF92DF92EF92FF920F9327
:101080001F93CF93DF9300D0CDB7DEB78C017A01E9
:10109000FC018581968169837A830E94811269812E
:1010A0007A81882391F1F801858196810E945412FA
:1010B00040E06EEBF801858196810E9412123701A3
:1010C0005701F9E0AF0EB11CF8018580968088E0E9
:1010D000C82ED12CEE24E394F12CC4010E94BF1140
:1010E0008111FE28EE0CF1E0CF1AD108B1F7F3011F
:1010F000F1923F01EA15FB0539F7F80185819681E8
:101100000E94811291E0813009F090E0892F0F90C8
:101110000F90DF91CF911F910F91FF90EF90DF9093
:10112000CF90BF90AF909F908F907F906F900895D9
:10113000CF93DF93CDB7DEB729970FB6F894DEBF14
:101140000FBECDBFFB012081203119F1AE014F5FF1
:101150005F4F0E943508882379F068E0CE01019640
:101160000E94B2119985891307C008C0803458F0D5
:101170008F3569F08F3769F080E00CC08D818F3337
:10118000A9F78AE007C08F31B9F789E003C08BE087
:1011900001C08CE029960FB6F894DEBF0FBECDBF1C
:1011A000DF91CF910895EF92FF920F931F93CF930A
:1011B000DF937C018B01D42FDC011596ED91FC911E
:1011C0001697138615861486DF011B9633961E929A
:1011D000AE17BF07E1F7C0E0B801D70115968D91B2
:1011E0009C9116970E949314811102C080E010C058
:1011F000CD130AC067E0C8010E94B211F8019781BF
:10120000891302C081E004C0CF5FDC1778F3E4CF1C
:10121000DF91CF911F910F91FF90EF900895EF9282
:10122000FF920F931F93CF93DF93CDB7DEB76197F4
:101230000FB6F894DEBF0FBECDBF8C01DC01159652
:10124000ED91FC911697138615861486DF011B9687
:1012500033961E92AE17BF07E1F7F8011482FF2400
:10126000F394BE01665F7F4FD80115968D919C91D6
:1012700016970E949314882309F458C067E0CE01A2
:101280000A960E94B21199898913EBCFD8018C91EB
:10129000811126C015968D919C9116970E948112FE
:1012A000BE01665F7F4FF801858196810E945412CE
:1012B00040E064EBD80115968D919C9116970E94A1
:1012C0001212F801858196810E94BF11E82ED80183
:1012D00015968D919C9116970E948112EE2019F11E
:1012E000AE014F5F5F4FBE01665F7F4FC8010E9436
:1012F0003508F801E180BE01665F7F4FC8010E949A
:1013000098088E1520F4D80111968C9106C0BE0164
:10131000665F7F4FC8010E949808F801818384812D
:101320008F5F84839ECFF801F082DACF61960FB68B
:10133000F894DEBF0FBECDBFDF91CF911F910F910B
:10134000FF90EF900895CF92DF92EF92FF921F935C
:10135000CF93DF9300D0CDB7DEB7182F7A01698322
:101360007A830E94A7156C0169817A810097A1F4A4
:1013700063E070E0812F0E948B038431F1F08823B9
:10138000E1F021E030E08C3111F420E030E0CC24B9
:10139000DD24C21AD30A11C0E816F9060CF467015D
:1013A0001C141D0454F420E0A601812F0E94331563
:1013B00060E470E0812F0E942315C6010F900F900A
:1013C000DF91CF911F91FF90EF90DF90CF90089524
:1013D000FC0184850C94A309CF93DF931F92CDB7B2
:1013E000DEB741E050E0BE016F5F7F4FFC018485B6
:1013F0000E94A309181619061CF4898190E002C006
:101400008FEF9FEF0F90DF91CF9108952A9A089563
:101410002A9808951F93CF93DF93182F66E270E008
:101420000E948B03C82FD0E067E270E0812F0E94FA
:101430008B03DC2FCC279E01282BC901DF91CF9194
:101440001F9108951F93CF93DF93182F60E270E0F0
:101450000E948B03C82FD0E061E270E0812F0E94D0
:101460008B03DC2FCC279E01282BC901DF91CF9164
:101470001F9108958EBD0DB407FEFDCF8EB5089562
:10148000CF92DF92EF92FF920F931F93CF93DF9350
:10149000EC017A018B016C01C40ED51ECC15DD0563
:1014A000A9F00E94080A8FE00E943A0A8D2F0E943C
:1014B0003A0A8C2F0E943A0A219680E00E943A0A4A
:1014C000F80181938F010E94060AE8CFC701DF91DE
:1014D000CF911F910F91FF90EF90DF90CF900895E3
:1014E000CF92DF92EF92FF920F931F93CF93DF93F0
:1014F000EC017A018B016C01C40ED51ECC15DD0503
:10150000A1F00E94080A80EF0E943A0A8D2F0E94E3
:101510003A0A8C2F0E943A0A2196F80181918F0194
:101520000E943A0A0E94060AE9CFC701DF91CF91D3
:101530001F910F91FF90EF90DF90CF9008951F9330
:10154000CF93DF9300D0CDB7DEB7182F6A8399838E
:101550000E94080A80EF0E943A0A9981892F0E940E
:101560003A0A812F0E943A0A6A81862F0E943A0A1B
:101570000E94060A81E00F900F90DF91CF911F919A
:1015800008959B0190E00496982F8827642F820F7E
:10159000931F0C949F0ACF93C82F60E170E00E94C4
:1015A00023154FEF62E070E08C2FCF910C94C10AAD
:1015B000CF92DF92EF92FF92CF93DF93EC018C8575
:1015C000843099F168E070E00E9423150E944D0775
:1015D0006B017C01CE010E9407088823A1F00E94C4
:1015E0004D07DC01CB018C199D09AE09BF09883E6E
:1015F0009340A105B10538F461E070E080E090E02F
:101600000E942707E7CFCE010E940708882319F020
:101610008C850E94CB0AEC85F0E0EE0FFF1FE953AA
:10162000FC4F1182108284E08C87DF91CF91FF9074
:10163000EF90DF90CF9008958F929F92AF92BF92DC
:10164000CF92DF92EF92FF920F931F93CF936C0193
:101650005B017A01FC01C485C43041F481E090E073
:10166000F6019383828380E090E041C08A0141309B
:10167000584010F000E018E08C2F0E9464114C01DB
:1016800063E070E08C2F0E948B03873111F08C3166
:1016900021F48016910680F302C000E010E098016A
:1016A000A50160E070E08C2F0E94FF1060E270E006
:1016B0008C2F0E94231562E070E08C2F0E948B0318
:1016C00084FD0BC063E070E08C2F0E948B038111BE
:1016D000F2CF8C2F0E94CB0AC1CF40E162E070E0D4
:1016E0008C2F0E94C10A012B09F4B8CFC701CF91FA
:1016F0001F910F91FF90EF90DF90CF90BF90AF9030
:101700009F908F900895CF92DF92FF920F931F9337
:10171000CF93DF938C01EB016A01FC018485843057
:1017200009F079C0F12C63E070E08F2D0E948B03EB
:10173000811103C0F801F48607C08B7F8831D1F393
:10174000F394F4E0FF12EFCFF8018485843009F4BC
:1017500062C020910001309101012F5F3F4F11F4D1
:1017600020E034E03093010120930001409100011A
:101770005091010161E00E948410F801F4848A8193
:101780008F3F51F48B818F3F91F48C818F3F79F49F
:101790008D818F3F61F43CC0811109C08B81811123
:1017A00006C08C81811103C08D81882389F1C11409
:1017B000D10471F1BE016E5F7F4F8F2D90E0982FA5
:1017C000882744E050E0845F9B4F0E94700A4D2DB3
:1017D00060E170E08F2D0E94C10A4C2D61E170E044
:1017E0008F2D0E94C10A64E070E08F2D0E942315A6
:1017F000C8010E940708873189F061E070E080E04D
:1018000090E00E942707C8010E9407088111F0CFCD
:1018100084E0F801848780E090E002C081E090E0FD
:10182000DF91CF911F910F91FF90DF90CF9008959E
:101830002F923F924F925F926F927F928F929F92E0
:10184000AF92BF92CF92DF92EF92FF920F931F93CE
:10185000CF93DF93CDB7DEB765970FB6F894DEBFB1
:101860000FBECDBF7C016B014A01FB01DB018D91F5
:101870008111FDCF20E030E080E090E05AE041911E
:101880004423F9F0843091054CF54E3269F42F3F32
:10189000310509F01CF5D401A80FB91F12962C933D
:1018A000019620E030E0EBCF529FB001539F700DC6
:1018B0001124242F440F330B20533109260F371FD7
:1018C000DECF2F3F310509F04CF48430910534F41C
:1018D000F401E80FF91F228381E021C0F701428162
:1018E0005381648175818091E3039091E403A09119
:1018F000E503B091E603481759076A077B0709F427
:1019000028C10E944D078701085F1F4F6F7077271E
:101910007C5FC8010E94BE10813019F080E090E029
:10192000F0C184EA91E09A838983F70182819381EF
:10193000A481B5818B839C83AD83BE8345E350E056
:10194000BE016F5F7F4FC8010E94F70E892B19F40B
:10195000C12CD12CF9C00E944D07F7017783668313
:1019600042E050E0B7016A5F7F4FC8010E948011DA
:1019700081E090E09A83898342E050E0BE016F5F8E
:101980007F4FC8010E94801180E091E09A83898393
:1019900042E050E0BE016F5F7F4FC8010E9480119E
:1019A0001A82198242E050E0BE016F5F7F4FC8018A
:1019B0000E94801142E050E0BE016F5F7F4FC8017E
:1019C0000E94801142E050E0BE016F5F7F4FC8016E
:1019D0000E9480112601F2018081882329F1C6012D
:1019E0005C01FC0120810196211116C02501350101
:1019F0006C187D081614170494F46D8641E050E0CD
:101A0000BE01635F7F4FC8010E948011A301B60130
:101A1000C8010E94801103C02E3211F7E7CF650183
:101A2000FFEFCF1ADF0AD7CF1D8641E050E0BE019D
:101A3000635F7F4FC8010E948011C12CDD24D394C5
:101A4000DA82C98242E050E0BE016F5F7F4FC80179
:101A50000E948011DA82C98242E050E0BE016F5FCD
:101A60007F4FC8010E948011C8010E94340F892B4A
:101A700009F46ECF83E0A82EB12C3401F2E06F0E92
:101A8000711C0E944D071B012C01C8010E94C10F4F
:101A900018161906A4F00E944D07DC01CB0182192B
:101AA0009309A409B50989389341A105B105D0F47A
:101AB00062E370E080E090E00E942707E6CFF70144
:101AC0004281538164817581818D928DA38DB48D06
:101AD000481759076A077B0741F4858D968DC5978E
:101AE00021F406C02FEF3FEF25C02EEF3FEF22C0BD
:101AF000F70181A192A10C970CF400C14CE050E0D9
:101B0000BE016F5F7F4FC8010E94790F8B819C815E
:101B10009827892798279A8B898BF70146815781C7
:101B200029813A8142175307B9F0C8010E949A0EE1
:101B30002CEF3FEF6901F1E0AF1AB10829F02FEF68
:101B4000C216D20609F49DCFC8010E94E20EC6015A
:101B5000D8C08EEF9FEFD5C097FFE7CF8F70927000
:101B6000892B31F0C8010E949A0E2BEF3FEFE2CF94
:101B7000CF80D884DC24CD24DC24C114D10431F4FA
:101B8000C8010E949A0E2AEF3FEFD4CF812C912CEE
:101B90008D819E819827892798278816990640F578
:101BA00041E050E0BE01635F7F4FC8010E94790FA2
:101BB0008D85811113C08D858111F2CFC8010E94DE
:101BC000980FC8010E94980FC8010E94980FC80181
:101BD0000E94980FFFEF8F1A9F0ADACF8D859FEF33
:101BE000980F9D87882339F3C8010E94980FF6CF7C
:101BF000812C912C41E050E0BE016D5E7F4FC80109
:101C00000E94790F8B89982F907C61F4882371F062
:101C10008B899FEF980F9B8B882341F0C8010E940E
:101C2000980FF6CFC8010E94980F1B8A8B898111EB
:101C3000E1CF42E050E0BE01615F7F4FC8010E94EA
:101C4000790F42E050E0BE01635F7F4FC8010E9400
:101C5000790FC8010E94980FC8010E94980FC8010F
:101C60000E94980FC8010E94980F42E050E0BE0108
:101C70006F5E7F4FC8010E94790F8F85988981150B
:101C80009140F1F42D853E853227232732272130DC
:101C90003105B1F489899A898115944031F0C801E0
:101CA0000E949A0E27EF3FEF45CF44E050E0B3018A
:101CB000C8012C8B3D8B0E94790F2C893D893ACF2E
:101CC000412C512C89899A89982789279827481669
:101CD000590638F4C8010E94980F8FEF481A580A25
:101CE000F1CFEFEF8E1A9E0A8C149D0409F082CF7B
:101CF000C8010E949A0E26EF3FEF1CCF2DEF3FEF59
:101D000019CF65960FB6F894DEBF0FBECDBFDF9139
:101D1000CF911F910F91FF90EF90DF90CF90BF90E8
:101D2000AF909F908F907F906F905F904F903F907B
:101D30002F900895CF93DF93EC01898D9A8D892B95
:101D400041F0E881F9810680F781E02DCE01099507
:101D5000F4CFDF91CF910895CF93DF931F92CDB74A
:101D6000DEB76983DC01ED91FC910280F381E02D07
:101D700041E050E0BE016F5F7F4F09950F90DF910A
:101D8000CF910895FC01818D928D0895FC01858984
:101D90009689089524EA31E0FC0131832083FB0118
:101DA0004189528963897489FC0142835383648326
:101DB00075830895DC01ED91FC91008CF18DE02D8F
:101DC00009940895CF93DF93EC018C85843061F002
:101DD0000E94CB0AEC85F0E0EE0FFF1FE953FC4FA9
:101DE0001182108284E08C87DF91CF9108950F9348
:101DF0001F93CF93FB018A01DC0158961C921E921F
:101E000057971C96CC918281811109C083818111E1
:101E100006C08481811103C085818823F9F00115F2
:101E20001105E1F0BF016E5F7F4F8C2F90E0982F7E
:101E3000882744E050E0845F9B4F0E94700A412F46
:101E400060E170E08C2F0E94C10A402F61E170E0D8
:101E50008C2F0E94C10A81E090E002C080E090E0F7
:101E6000CF911F910F910895CF93FC01C48560E23B
:101E700070E08C2F0E94231562E070E08C2F0E948E
:101E80008B0384FD10C062E070E08C2F0E948B03F6
:101E900083FFF2CF48E162E070E08C2F0E94C10A1C
:101EA00080E090E008C040E162E070E08C2F0E948A
:101EB000C10A81E090E0CF910895CF93DF931F9204
:101EC000CDB7DEB7FC01218D328D232B61F021E0EF
:101ED00041E050E0BE016F5F7F4F84850E94331563
:101EE000898190E002C08FEF9FEF0F90DF91CF913B
:101EF0000895CF93DF93FC01218D328D211531059B
:101F000019F48FEF9FEF11C0EC014217530708F04F
:101F1000A9018C850E94A3091816190694F7298D2A
:101F20003A8D281B390B3A8F298FDF91CF91089575
:101F30000F931F93CF93DF931F92CDB7DEB7FC01B2
:101F4000218D328D232B61F08C0141E050E0BE01E8
:101F50006F5F7F4F84850E94A309181619061CF035
:101F60008FEF9FEF08C0F801818D928D0197928FBE
:101F7000818F898190E00F90DF91CF911F910F9118
:101F800008950F931F93CF93DF93CDB7DEB72897B4
:101F90000FB6F894DEBF0FBECDBF8C01DC01ED9112
:101FA000FC910284F385E02D0995F80184850E9457
:101FB000A715892B59F148E050E0BE016F5F7F4FB4
:101FC000D8011C968C910E94A3099C011816190631
:101FD000DCF489819A81AB81BC81F801818B928B81
:101FE000A38BB48B8D8190E0982F88272E81820F50
:101FF000911D968B858B2F8130E0322F222788858B
:10200000280F311D328F218FC90102C080E090E07E
:1020100028960FB6F894DEBF0FBECDBFDF91CF91EB
:102020001F910F910895EF92FF920F931F93CF93FB
:10203000DF93CDB7DEB7E1970FB6F894DEBF0FBEE2
:10204000CDBF8C017A01CE01019668AB79AB0E94BD
:1020500024061C861B8688EE93E0A0E0B0E08D8706
:102060009E87AF87B88B8CE391E09A87898784E05D
:102070008D8BCE0148960E942406CE0184960E9444
:1020800024068091E9039091EA03A091EB03B091BB
:10209000EC038CA79DA7AEA7BFA78B839C83AD83C2
:1020A000BE8318861F82AE014C5D5F4F68A979A977
:1020B000CE0101960E94180C81309105C1F4D8011F
:1020C000ED91FC910088F189E02D84EA91E09BA7D5
:1020D0008AA78EA19FA1A8A5B9A58CA79DA7AEA7E9
:1020E000BFA7A701BE01665D7F4FC8010995E196B4
:1020F0000FB6F894DEBF0FBECDBFDF91CF911F9119
:102100000F91FF90EF900895FF920F931F93CF933D
:10211000DF931F92CDB7DEB7F82E8A0169830E9444
:10212000CB0A6981462F60E070E08F2D0E94C10AC2
:102130000115110551F40091CF031091D0030F5FE9
:102140001F4F1093D0030093CF03412F64E070E042
:102150008F2D0E94C10A402F65E070E08F2D0E94F4
:10216000C10A61E070E08F2D0E94231581E00F907D
:10217000DF91CF911F910F91FF900895EF92FF9201
:102180001F93CF93DF93FC012485243011F080E06E
:102190001DC07B01EC0110E063E070E0812F0E9424
:1021A0008B03811102C01C8705C08831E1F31F5FDA
:1021B000143091F78C85843051F3FE86ED861A8EAB
:1021C000198EA70162E00E94841081E0DF91CF9117
:1021D0001F91FF90EF90089584E480937C0080919C
:1021E0007A00806480937A0080917A0086FDFCCF2B
:1021F000809178002091790090E0922B08959F9231
:10220000AF92BF92CF92DF92EF92FF920F931F9304
:10221000CF93DF93982E8B015A01690164E270E03D
:102220000E948B03E82EF12C65E270E0892D0E945C
:102230008B03FE2CEE24E82AE701C00FD11F9E017C
:102240003770E92CF12CC701880F991FAC014F5250
:102250005C4F7A01FA0180819181820F931FA9015D
:102260004C0D5D1D4130584090F000E018E0021B1D
:10227000130BA801B5010E94700AA601401B510B67
:10228000B501600F711FF7018081918102C0A60125
:10229000B5010E94700ACC0DDD1D4D2F64E270E087
:1022A000892D0E94C10A4C2F65E270E0892DDF91D3
:1022B000CF911F910F91FF90EF90DF90CF90BF9043
:1022C000AF909F900C94C10AFF920F931F93CF93EE
:1022D000DF93F82EC0E0D0E08F2D0E94220A8C01FF
:1022E000892B21F08F2D0E94220AEC01C017D10703
:1022F00099F7CE01DF91CF911F910F91FF90089533
:10230000AF92BF92CF92DF92FF920F931F93CF9322
:10231000DF938C015B01EA01FC01C788D08CF48457
:102320008F2D0E9464118C179D0720F48F2D0E9421
:102330006411EC019E01A501B6018F2D0E94FF10D2
:10234000F8018789908D8C0F9D1F908F878BCE0110
:10235000DF91CF911F910F91FF90DF90CF90BF90B1
:10236000AF900895DC01E0E0615038F08D91E827EE
:10237000F0E0EE53FF4FE491F7CF8E2F0895FC016C
:1023800090810180F281E02DF8948181892B8183F5
:102390002281892F809528232283A6E0B0E011971F
:1023A000F1F7218182238183A2E2B0E01197F1F756
:1023B00080817894EEECF0E03197F1F7982381E09A
:1023C00009F480E00895FC0190810180F281E02D04
:1023D000892F809560FF12C0F89422818223828326
:1023E0008181892B8183A2E2B0E01197F1F782818C
:1023F000982B9283789486ED90E011C0F894228116
:10240000822382838181892B8183AEEFB0E0119793
:10241000F1F78281982B928378948EE090E0019777
:10242000F1F70895CF92DF92EF92FF920F931F93EF
:10243000CF93DF931F92CDB7DEB76C01E62E08E095
:1024400010E0FF24F39461E08F2D8E2109F460E009
:10245000C60149830E94E311FF0C01501109498113
:102460000115110581F7411115C0F894D601119697
:10247000ED91FC91129791818C91809589238183B4
:102480001196ED91FC91129792818C918095892300
:10249000828378940F90DF91CF911F910F91FF90DD
:1024A000EF90DF90CF900895CF92DF92EF92FF925E
:1024B0000F931F93CF93DF931F92CDB7DEB78C019D
:1024C000F62E40E065E579830E941212CF2C7981C7
:1024D000D72E760188E0E80EF11CF60161916F01BC
:1024E00040E0C8010E941212CE14DF04B1F70F9031
:1024F000DF91CF911F910F91FF90EF90DF90CF90E0
:102500000895FC0190810180F281E02DF894818191
:10251000292F20958223818378948DE742E050E033
:10252000815021F1DA011197F1F730813923C1F39C
:10253000F8948281822382838181892B818378949C
:10254000AAE7B7E01197F1F7F89481812823218356
:10255000A2E1B1E01197F1F78081982381E009F0C1
:1025600080E07894E2E6F6E03197F1F708950F9372
:102570001F93CF93DF93EC01162F60E0812F0E9411
:10258000EB06612F70E0FB01E255FF4FE491E88319
:10259000FB01E656FF4FE491F0E0EE0FFF1FE0571E
:1025A000FF4F859194919A8389831B861D861C8693
:1025B000FE013B968E010D5F1F4F1292E017F1074F
:1025C000E1F7DF91CF911F910F9108950F931F9322
:1025D000CF93DF93CDB7DEB761970FB6F894DEBF28
:1025E0000FBECDBF8C01462FBE01665F7F4F0E949C
:1025F000D308811105C060E070E08EEF92EC55C009
:10260000AE014F5F5F4FBE01665F7F4FC8010E9402
:102610003508882309F446C068E0CE0101960E947F
:10262000B211998589133EC0698188E0689FB00125
:1026300011248A81282F30E0322F2227330F330FC5
:10264000330F262B372B8A85803151F5688570E052
:102650008F81AB01481B5109CA019695982F882795
:10266000979587950E94211F60517109207F53E043
:10267000220F331F5A95E1F7620F731F613854EE32
:1026800075070CF4B8CF072E000C880B990B0E942D
:10269000FA1D20E030E040E05CE30E94AF1E05C080
:1026A000B901ECCF60E874EEE9CF61960FB6F8940B
:1026B000DEBF0FBECDBFDF91CF911F910F91089567
:1026C000CF93DF93EC018D819E810E94811240E0C7
:1026D0006CEC8D819E810E941212488164E48D8190
:1026E0009E810E9412128A818823B1F0E981E9500B
:1026F000E33040F4F0E0EE0FFF1FE25FFE4F608139
:10270000718102C06EEE72E0072E000C880B990BEF
:10271000DF91CF910C942707DF91CF910895CF934C
:10272000DF93DC01ED91FC910190F081E02D67E7F2
:1027300074E00995EC0187E794E00E9425058C0F71
:102740009D1FDF91CF9108951F93CF93DF93CDB756
:10275000DEB7C254D1090FB6F894DEBF0FBECDBFAD
:10276000FC0182819381A481B58123968CAF9DAFBA
:10277000AEAFBFAF239711E023961FAF23972396E9
:102780004CAD5DAD6EAD7FAD23974BAB5CAB6DAB30
:102790007EAB89AF9AAFABAFBCAF8DA79EA7AFA7FB
:1027A000B8AB18AB4DA55EA56FA578A94FA358A7E8
:1027B00069A77AA71EAB4BA95CA96DA97EA949A3FD
:1027C0005AA36BA37CA38B8F9C8FAD8FBE8F24EA03
:1027D00031E03C8B2B8B4FEF4D8B4E8B4F8B188EFC
:1027E0003E872D871AA74FA158A569A57AA54F87BF
:1027F000588B698B7A8B1CA349A15AA16BA17CA130
:1028000049875A876B877C873A8329838B839C838C
:10281000AD83BE836CE271E080E090E00E94270708
:1028200061E08AE00E949F0661E08AE00E94EB0678
:102830008CB580618CBD8CB580648CBD61E08DE011
:102840000E94EB0661E08BE00E94EB06229A60E8B2
:1028500080E090E00E949F0A65E58BE190E00E9495
:102860009F0A65E58AE190E00E949F0AE1EDF3E0AE
:1028700080E090E49183808380E090E69187808778
:1028800080E098E49383828380E098E69387828750
:1028900080E090E59583848380E090E79587848746
:1028A00080E098E59783868380E098E7978786871E
:1028B00046E050E062E071E089E090E00E94700A3A
:1028C00044E050E0BE016D5F7F4F8FE090E00E94DA
:1028D000700A44E050E0BE01615F7F4F81E090E00C
:1028E0000E94700A44E050E0BE016B5E7F4F85E0BD
:1028F00090E00E94700A1C8789859A85AB85BC850B
:102900008093E9039093EA03A093EB03B093EC0365
:10291000CE5BDF4F0FB6F894DEBF0FBECDBFDF91A9
:10292000CF911F910895AF92BF92CF92DF92EF9215
:10293000FF920F931F93CF93DF931F92CDB7DEB714
:102940005C01D62EE72EFC018585811105C0C501ED
:102950000E948112811106C0F50113861586148626
:1029600080E065C040E060EFC5010E94121201E006
:10297000F12CC12C11E0C5010E94BF11682FC501C7
:1029800069830E94BF116981613019F48130B9F403
:1029900033C04F2D50E068131BC0F5018385181715
:1029A00030F4E40FF51F8381802349F402C0181727
:1029B00031F060E0193058F4F501148708C0F501D2
:1029C000EF0DF11D8381802B838361E009C0C12E4F
:1029D000F501E40FF51F9381802F80958923838370
:1029E000C5010E94E3111F5F000F11F4F39401E091
:1029F000F7E0FF1508F0BFCF113408F4ADCFF501B3
:102A0000C386C11002C081E08587F50183818823D8
:102A100009F4A2CFD5011396ED2DFE2D9501255F6A
:102A20003F4F8D918193A217B307D9F781E00F90A3
:102A3000DF91CF911F910F91FF90EF90DF90CF909A
:102A4000BF90AF900895CF93C82F462F61E070E0FC
:102A50000E94C10A61E070E08C2F0E948B038111FB
:102A6000F9CFCF9108958F929F92AF92BF92CF925C
:102A7000DF92EF92FF920F931F93CF93DF93B82EC5
:102A80004B018A01A22E68E270E00E948B03C82FDE
:102A9000D0E069E270E08B2D0E948B03DC2FCC2705
:102AA000C82B9E013770CB2CD12CC601880F991FE3
:102AB000AC0147525C4F6A01FA0180819181820F1B
:102AC000931FA901400F511F4130584098F060E01A
:102AD00078E07B01E21AF30AA701B4010E94400AE0
:102AE000A8014E195F09B4016E0D7F1DF6018081AA
:102AF000918102C0A801B4010E94400AA1101AC02D
:102B0000C00FD11F4D2F68E270E08B2D0E94C10ACB
:102B10004C2F69E270E08B2DDF91CF911F910F91C7
:102B2000FF90EF90DF90CF90BF90AF909F908F90ED
:102B30000C94C10ADF91CF911F910F91FF90EF90FC
:102B4000DF90CF90BF90AF909F908F900895FF92AD
:102B50000F931F93CF93DF93F82EC0E0D0E08F2D1B
:102B60000E940A0A8C01892B21F08F2D0E940A0AEB
:102B7000EC01C017D10799F7CE01DF91CF911F91DA
:102B80000F91FF900895CF93DF93AB01BC0122E03A
:102B900087E794E00E942604EC0187E794E00E9416
:102BA00025058C0F9D1FDF91CF910895CF93DF9363
:102BB000CDB7DEB72E970FB6F894DEBF0FBECDBFF0
:102BC000789484B5826084BD84B5816084BD85B508
:102BD000826085BD85B5816085BD80916E00816014
:102BE00080936E00109281008091810082608093BA
:102BF00081008091810081608093810080918000BC
:102C00008160809380008091B10084608093B100E6
:102C10008091B00081608093B00080917A008460E0
:102C200080937A0080917A00826080937A0080910C
:102C30007A00816080937A0080917A008068809326
:102C40007A001092C100E0918B04F0918C0481E035
:102C500090E09C010090970402C0220F331F0A9459
:102C6000E2F72083E0918704F09188041082E091DC
:102C70008904F0918A042FEC208310929804E0914B
:102C80008D04F0918E0440819C010090930402C059
:102C9000220F331F0A94E2F7242B2083E0918D0446
:102CA000F0918E0440819C010090940402C0220F98
:102CB000331F0A94E2F7242B2083E0918D04F091D6
:102CC0008E0440819C010090950402C0220F331FA6
:102CD0000A94E2F7242B2083E0918D04F0918E0476
:102CE00020810090960402C0880F991F0A94E2F791
:102CF0008095822380836DE572E087E794E00E94EF
:102D000039058BED94E00E940F098AEB94E00E9454
:102D10000F0989E994E00E940F0961E08AE00E94AE
:102D2000EB0661E08AE00E949F0661E085E00E9478
:102D3000EB0660E08EE00E94EB0660E082E10E941C
:102D4000EB0684EA91E09A8389838091470590910C
:102D50004805A0914905B0914A058B839C83AD83BA
:102D6000BE83CE0101960E94A413CE0101960E945B
:102D7000240644E050E0BE016D5F7F4F8FE090E09D
:102D80000E94400ACE0101960E948F1368E873E109
:102D900080E090E00E94270784EAC82E81E0D82EC8
:102DA0000E944D070E944D070E94F81D2B013C0117
:102DB000E12CF12C00E010E00E94EC10181619062E
:102DC0001CF40E94EC1005C00E94EC1091958195B6
:102DD00091099093C6038093C503BC01990F880B9A
:102DE000990B0E94FA1D20E030E040E85AE30E946F
:102DF000AF1E20E030E44CE955E40E94AF1E609322
:102E0000C1037093C2038093C3039093C40320E073
:102E100030E44CE155E40E94DE1C20E030E044E860
:102E200052E40E94501D4B015C01CB01D5018093FF
:102E3000BD039093BE03A093BF03B093C00397015B
:102E4000A801B401C5010E94AA1E181614F4740149
:102E500085010E944D070E94F81DA30192010E9466
:102E6000DE1C20E030E040EA51E40E944B1D1816C1
:102E70000CF0A2CF23EF34E045EB5FE3B701C801CC
:102E80000E94501D4B015C016BE672E087E794E005
:102E90000E94A002C501B4010E94C31525E832E0DA
:102EA000B501A4018AE792E00E944B058BED94E006
:102EB0000E94601310E0612F8BED94E00E94E612F7
:102EC0004B015C0120E030E040EA50EC0E94AA1E79
:102ED00087FD2AC020E030E044E352E4C501B4019C
:102EE0000E944B1D181604F167E872E087E794E032
:102EF0000E94A002C501B4010E94C31529E932E075
:102F0000B501A4018FE992E00E944B05412FBE015B
:102F10006F5F7F4F8BED94E00E94D30868EE73E003
:102F200080E090E00E9427071F5F133021F68AEBB4
:102F300094E00E94601310E0612F8AEB94E00E94FD
:102F4000E6124B015C0120E030E040EA50EC0E94C8
:102F5000AA1E87FD2AC020E030E044E352E4C50108
:102F6000B4010E944B1D181604F16FEA72E087E766
:102F700094E00E94A002C501B4010E94C31529E992
:102F800032E0B501A40181EC92E00E944B05412F93
:102F9000BE016F5F7F4F8AEB94E00E94D30868EE1A
:102FA00073E080E090E00E9427071F5F133021F656
:102FB00089E994E00E94601310E0612F89E994E0B0
:102FC0000E94E6124B015C0120E030E040EA50EC48
:102FD0000E94AA1E87FD2AC020E030E044E352E4AC
:102FE000C501B4010E944B1D181604F161ED72E099
:102FF00087E794E00E94A002C501B4010E94C315B6
:1030000029E932E0B501A40180EE92E00E944B056F
:10301000412FBE016F5F7F4F89E994E00E94D30882
:1030200068EE73E080E090E00E9427071F5F133096
:1030300021F687E794E00E942505DA86C98680910B
:103040004D0590914E05A0914F05B09150058B878D
:103050009C87AD87BE8740E550E0BE01675F7F4F2C
:1030600086E295E00E94830B892B09F421C16DEE65
:1030700072E086E295E00E94390566E273E086E23E
:1030800095E00E9439056CE373E086E295E00E94CA
:10309000390565E372E086E295E00E94390586E233
:1030A00095E00E94250500E010E0B12CE12CF12C08
:1030B00086E295E00E941108882309F442C086E266
:1030C00095E00E94FE07892B99F386E295E00E9425
:1030D000EC09682F8D3021F48FEFE81AF80A05C04B
:1030E0008A3041F48AE0E80EF11C85E1E816F1042B
:1030F0002CF502C0E12CF12CBB20D1F2603231F072
:103100006A3321F06D3011F06A3019F40F5F1F4FF0
:10311000CFCF0115110519F48FE195E00CC00130F6
:10312000110519F488E195E006C00230110509F097
:10313000BFCF81E195E00E940F03BACFBB24B394C7
:10314000B7CF86E295E00E94D80ABB2009F4B0C050
:1031500068E175E087E794E00E94B10187E794E0B9
:103160000E94250561E175E087E794E00E94B101C6
:1031700087E794E00E94250580911C0590911D052C
:10318000892B61F166E673E080911805909119052D
:103190000E94CE1C892B11F5809115059091160582
:1031A000892B91F06EE673E08091110590911205E4
:1031B0000E94CE1C892B41F461E773E087E794E01D
:1031C0000E94390561E007C065E873E087E794E095
:1031D0000E94390560E085E00E949F06DA86C98674
:1031E00080914D0590914E05A0914F05B0915005ED
:1031F0008B879C87AD87BE8740E550E0BE01675F47
:103200007F4F86E295E00E94830B892B61F168E98C
:1032100073E086E295E00E94A0026FE175E086E22D
:1032200095E00E94B1016CE173E086E295E00E94B6
:10323000390566E273E086E295E00E9439056CE3A9
:1032400073E086E295E00E94390565E372E086E26C
:1032500095E00E94390586E295E00E94250586E208
:1032600095E00E94D80A6FE175E08AE095E00E943F
:103270006A0368E175E083E095E00E946A0361E11A
:1032800075E08CEF94E00E946A0340E050E069E74B
:1032900072E081E195E00E943F0361E175E088E121
:1032A00095E00E946A03BC018FE195E00E946A03E9
:1032B00060ED77E080E090E00E9427070E94A60181
:1032C0006FCD8091FC049091FD040E94631B80915E
:1032D0000305909104050E94631B80910A0590915B
:1032E0000B050E94631B80911105909112050E94AD
:1032F000631B80911805909119050E94631B8091B2
:103300001F05909120050C94631BEF92FF920F9381
:103310001F93CF93EDE5F5E004EA11E011830083FC
:103320001282138214821582E3E6F5E01183008392
:103330001282138214821582E1EEF3E0118300837E
:103340001282138214821582E9E6F5E0118300836C
:10335000128213821482158287EE93E00E94240663
:10336000EFE6F5E011830083128213821482158246
:10337000E7E7F4E01382128248EE53E060E070E089
:10338000448355836683778380E691E091838083CD
:1033900083E394E0958784878FEE93E09787868711
:1033A00085EC90E0918B808B84EC90E0938B828B0A
:1033B00080EC90E0958B848B81EC90E0978B868BF2
:1033C00082EC90E0918F808F86EC90E0938F828FDB
:1033D00024E0248F83E0858F87E0868F85E0878FC8
:1033E000C1E0C0A3E5E7F5E01183008312821382F8
:1033F00014821582E7E5F5E01183008312821382BF
:1034000014821582E1E5F5E01183008390EC92834C
:1034100088EA8383C4833CE03583EBE4F5E01183E1
:10342000008392838383C4833583E5E4F5E01183CD
:10343000008392838383C48334E13583EFE3F5E033
:103440001183008392838383C483C583E9E3F5E01A
:103450001183008392838383C483C583E3E3F5E010
:10346000118300838FEF8283838384831582E6E256
:10347000F5E013821282448355836683778388E85C
:1034800091E091838083248767E172E08FE195E08A
:103490000E940E0669E772E088E195E00E940E0640
:1034A00069E772E081E195E00E940E0667E172E053
:1034B0008AE095E00E940E0669E772E083E095E0FD
:1034C0000E940E0669E772E08CEF94E00E940E06FF
:1034D00066E08EEE94E00E94B712EBEDF4E081EE30
:1034E000E82E8EE0F82EF28AE18A8EEE94E0968342
:1034F00085831482108219E01183C283C38362E042
:103500008DEC94E00E94B712EAEBF4E0F28AE18AD3
:103510008DEC94E096838583148210821183C2839C
:10352000C38363E08CEA94E00E94B712E9E9F4E017
:10353000F28AE18A8CEA94E0968385831482108271
:103540001183C283C383CF911F910F91FF90EF909E
:103550000895F8940C94861FA1E21A2EAA1BBB1B97
:10356000FD010DC0AA1FBB1FEE1FFF1FA217B3074F
:10357000E407F50720F0A21BB30BE40BF50B661F65
:10358000771F881F991F1A9469F760957095809529
:1035900090959B01AC01BD01CF010895CF93DF93BE
:1035A0008230910510F482E090E0E0917D05F09189
:1035B0007E0520E030E0C0E0D0E0309711F140819E
:1035C000518148175907C0F04817590761F48281A3
:1035D0009381209719F09B838A832BC090937E055B
:1035E00080937D0526C02115310519F04217530738
:1035F00018F49A01BE01DF01EF010280F381E02D92
:10360000DCCF2115310509F1281B390B2430310598
:1036100090F412968D919C9113976115710521F08C
:10362000FB019383828304C090937E0580937D0584
:10363000FD01329644C0FD01E20FF31F8193919387
:10364000225031092D933C933AC020917B05309153
:103650007C05232B41F420910A0130910B0130931A
:103660007C0520937B0520910801309109012115EB
:10367000310541F42DB73EB740910C0150910D0139
:10368000241B350BE0917B05F0917C05E217F307D5
:10369000A0F42E1B3F0B2817390778F0AC014E5FC2
:1036A0005F4F2417350748F04E0F5F1F50937C057E
:1036B00040937B058193919302C0E0E0F0E0CF015D
:1036C000DF91CF9108950F931F93CF93DF930097CE
:1036D00009F48CC0FC0132971382128200917D059F
:1036E00010917E050115110581F420813181820F31
:1036F000931F20917B0530917C052817390779F5B8
:10370000F0937C05E0937B0571C0D80140E050E068
:10371000AE17BF0750F412962D913C911397AD014F
:103720002115310509F1D901F3CF9D01DA01338368
:10373000228360817181860F971F8217930769F436
:10374000EC0128813981260F371F2E5F3F4F3183CF
:1037500020838A819B8193838283452B29F4F09374
:103760007E05E0937D0542C01396FC93EE9312977D
:10377000ED01499159919E01240F351FE217F3077E
:1037800071F480819181840F951F029611969C930C
:103790008E938281938113969C938E931297E0E08F
:1037A000F0E0D80112968D919C911397009719F033
:1037B000F8018C01F6CF8D919C9198012E5F3F4FBF
:1037C000820F931F20917B0530917C0528173907C4
:1037D00069F4309729F410927E0510927D0502C09D
:1037E0001382128210937C0500937B05DF91CF91A9
:1037F0001F910F910895A0E0B0E0E1E0FCE10C948E
:10380000391FEC01009721F4CB010E94CE1AB8C0F9
:10381000FC01E60FF71F9C0122503109E217F30764
:1038200008F4ACC0D9010D911C9111970617170728
:10383000B0F00530110508F49FC0C8010497861741
:10384000970708F499C002501109061B170B019342
:1038500011936D937C93CF010E94631B8DC05B011C
:10386000A01AB10A4C01800E911EA0917D05B09165
:103870007E0540E050E0E12CF12C109709F44AC09D
:10388000A815B905D1F56D907C901197630182E080
:10389000C80ED11CCA14DB0480F1A3014A195B09CC
:1038A0006A0182E0C80ED11C1296BC901297139642
:1038B000AC91B5E0CB16D10440F0B282A383518322
:1038C0004083D9016D937C930AC00E5F1F4FC301E3
:1038D000800F911FF90191838083EB2DFA2FE11462
:1038E000F10431F0D7011396FC93EE93129744C084
:1038F000F0937E05E0937D053FC08D919C911197DB
:103900004817590708F4AC017D0112960D90BC913F
:10391000A02DB3CF80917B0590917C0588159905EA
:10392000E1F446175707C8F4809108019091090106
:10393000009741F48DB79EB740910C0150910D0155
:10394000841B950BE817F907C8F4F0937C05E09306
:103950007B05F901718360830FC0CB010E94CE1AF1
:103960007C01009759F0A801BE010E94C51CCE0140
:103970000E94631BC70104C0CE0102C080E090E03A
:10398000CDB7DEB7EEE00C94551FFB01DC0102C0A1
:1039900001900D9241505040D8F70895FB01DC0191
:1039A0008D91019080190110D9F3990B0895FB01B5
:1039B000DC0101900D920020E1F708955058BB27DB
:1039C000AA270E94F61C0C94701E0E94621E38F0FA
:1039D0000E94691E20F039F49F3F19F426F40C94DC
:1039E0005F1E0EF4E095E7FB0C94591EE92F0E9430
:1039F000811E58F3BA17620773078407950720F0F2
:103A000079F4A6F50C94A31E0EF4E0950B2EBA2FB4
:103A1000A02D0B01B90190010C01CA01A0011124D4
:103A2000FF27591B99F0593F50F4503E68F11A1680
:103A3000F040A22F232F342F4427585FF3CF469511
:103A400037952795A795F0405395C9F77EF41F1633
:103A5000BA0B620B730B840BBAF09150A1F0FF0FFD
:103A6000BB1F661F771F881FC2F70EC0BA0F621FE9
:103A7000731F841F48F4879577956795B795F795D9
:103A80009E3F08F0B0CF9395880F08F09927EE0F6E
:103A90009795879508950E94351E08F481E0089552
:103AA0000E94641D0C94701E0E94691E58F00E94B2
:103AB000621E40F029F45F3F29F00C94591E511109
:103AC0000C94A41E0C945F1E0E94811E68F399231F
:103AD000B1F3552391F3951B550BBB27AA2762170A
:103AE0007307840738F09F5F5F4F220F331F441F17
:103AF000AA1FA9F335D00E2E3AF0E0E832D091504B
:103B00005040E695001CCAF72BD0FE2F29D0660F37
:103B1000771F881FBB1F261737074807AB07B0E87A
:103B200009F0BB0B802DBF01FF2793585F4F3AF080
:103B30009E3F510578F00C94591E0C94A41E5F3FD3
:103B4000E4F3983ED4F3869577956795B795F79506
:103B50009F5FC9F7880F911D9695879597F90895EE
:103B6000E1E0660F771F881FBB1F6217730784078A
:103B7000BA0720F0621B730B840BBA0BEE1F88F799
:103B8000E09508950E94C91D6894B1110C94A41E7B
:103B900008950E94891E88F09F5798F0B92F9927A1
:103BA000B751B0F0E1F0660F771F881F991F1AF028
:103BB000BA95C9F714C0B13091F00E94A31EB1E0CC
:103BC00008950C94A31E672F782F8827B85F39F0CB
:103BD000B93FCCF3869577956795B395D9F73EF4C1
:103BE00090958095709561957F4F8F4F9F4F089569
:103BF000E89409C097FB3EF4909580957095619587
:103C00007F4F8F4F9F4F9923A9F0F92F96E9BB273C
:103C10009395F695879577956795B795F111F8CFB8
:103C2000FAF4BB0F11F460FF1BC06F5F7F4F8F4F23
:103C30009F4F16C0882311F096E911C0772321F019
:103C40009EE8872F762F05C0662371F096E8862FB1
:103C500070E060E02AF09A95660F771F881FDAF708
:103C6000880F9695879597F90895990F0008550F35
:103C7000AA0BE0E8FEEF16161706E807F907C0F0F2
:103C800012161306E407F50798F0621B730B840BFA
:103C9000950B39F40A2661F0232B242B252B21F4D4
:103CA00008950A2609F4A140A6958FEF811D811D74
:103CB000089597F99F6780E870E060E008959FEFAE
:103CC00080EC089500240A941616170618060906B3
:103CD000089500240A941216130614060506089582
:103CE000092E0394000C11F4882352F0BB0F40F40A
:103CF000BF2B11F460FF04C06F5F7F4F8F4F9F4F4A
:103D0000089557FD9058440F551F59F05F3F71F0CB
:103D10004795880F97FB991F61F09F3F79F0879532
:103D20000895121613061406551FF2CF4695F1DFBB
:103D300008C0161617061806991FF1CF869571054B
:103D4000610508940895E894BB2766277727CB017F
:103D500097F908950E94351E08F48FEF08950E9488
:103D6000C21E0C94701E0E94621E38F00E94691ED2
:103D700020F0952311F00C94591E0C945F1E112411
:103D80000C94A41E0E94811E70F3959FC1F3950FA1
:103D900050E0551F629FF001729FBB27F00DB11DCF
:103DA000639FAA27F00DB11DAA1F649F6627B00D5F
:103DB000A11D661F829F2227B00DA11D621F739F48
:103DC000B00DA11D621F839FA00D611D221F749F56
:103DD0003327A00D611D231F849F600D211D822F9D
:103DE000762F6A2F11249F5750409AF0F1F08823C4
:103DF0004AF0EE0FFF1FBB1F661F771F881F9150F1
:103E00005040A9F79E3F510580F00C94591E0C9428
:103E1000A41E5F3FE4F3983ED4F3869577956795AB
:103E2000B795F795E7959F5FC1F7FE2B880F911D1A
:103E30009695879597F908950E94351E880B990BE2
:103E4000089597FB072E16F4009407D077FD09D04C
:103E50000E946C1F07FC05D03EF4909581959F4F02
:103E60000895709561957F4F08952F923F924F92DC
:103E70005F926F927F928F929F92AF92BF92CF92FA
:103E8000DF92EF92FF920F931F93CF93DF93CDB703
:103E9000DEB7CA1BDB0B0FB6F894DEBF0FBECDBF7B
:103EA00009942A88398848885F846E847D848C844C
:103EB0009B84AA84B984C884DF80EE80FD800C8155
:103EC0001B81AA81B981CE0FD11D0FB6F894DEBF38
:103ED0000FBECDBFED010895AA1BBB1B51E107C06A
:103EE000AA1FBB1FA617B70710F0A61BB70B881F8A
:103EF000991F5A95A9F780959095BC01CD01089519
:103F0000EE0FFF1F0590F491E02D099410E0C2EE32
:103F1000D0E004C0FE010E94801F2196C33ED1075D
:063F2000C9F7F894FFCF81
:103F26000004DEADBEEFFEED00007F0520005E0062
:103F3600BC007701000000000F020F020F020F0203
:103F46000F020F020F020F020F020F020F020F02E3
:103F56000F020F020F020F0200000000AC0E8011CC
:103F6600C20E980F5D0F9A0EBE10E20EF70E1310DA
:103F7600340FC10F790FDA0ECA0EC60E000000000C
:103F86000D01E70196015A017A014F010000000078
:103F96000F02E7010F020F020F020F0200000000DE
:103FA6000F02E70100000000C2071C0BFE07EC0928
:103FB600D807AB07830B2E06E809D80A1108A30712
:103FC60000000000A202000000000F026E616E00F9
:103FD600696E66006F76660053656E64696E67206B
:103FE60076616C75652E2E2E00474554202F656D23
:103FF6006F6E636D732F696E7075742F706F737447
:104006002E6A736F6E3F6170696B65793D00326130
:104016003465373630356262383236613832656635
:104026003361353466346666303236376564002669
:104036006E6F64653D00333000266A736F6E3D7B9C
:10404600007D004163636570743A202A2F2A004878
:104056006F73743A00436F6E6E656374696F6E3A80
:1040660020636C6F736500636F6E6E656374696F52
:104076006E206661696C656420746F2000537461FC
:104086007274696E672E2E2E2E2E0043555252459F
:104096004E545F434153413A200043555252454ED8
:1040A600545F434153410054454D505F534F545460
:1040B6004F544554544F3A2000266465673B0054DC
:1040C600454D505F534F54544F544554544F00542C
:1040D600454D505F444953494D5045474E4F3A2050
:1040E6000054454D505F444953494D5045474E4F46
:1040F6000054454D505F53414C4F54544F3A2000A5
:1041060054454D505F53414C4F54544F004745540E
:10411600202F74656D702F6A6F62732E7068703F02
:104126007265715F636D643D48454154455253263F
:1041360073696D706C655F6F75743D3120485454BA
:10414600502F312E3100486F73743A203139322E98
:104156003136382E312E31323A3830004175746896
:104166006F72697A6174696F6E3A2042617369632E
:104176002059573530627A70795A584E70633352E7
:1041860076636D553D0048454154455253004F4EA8
:1041960000416363656E646F207465726D6F736949
:1041A600666F6E69005370656E676F207465726D19
:1041B6006F7369666F6E6900474554202F74656D8D
:1041C600702F6A6F62732E7068703F6A6F625F69E4
:0441D600643D000044
:00000001FF
