:100000000C9462000C948A000C948A000C948A0070
:100010000C948A000C948A000C948A000C948A0038
:100020000C948A000C948A000C948A000C948A0028
:100030000C948A000C948A000C948A000C948A0018
:100040000C940F060C948A000C94D5050C949A0518
:100050000C948A000C948A000C948A000C948A00F8
:100060000C946F040C948A00000000002400270008
:100070002A0000000000250028002B0000000000DE
:1000800023002600290004040404040404040202DA
:100090000202020203030303030301020408102007
:1000A0004080010204081020010204081020000012
:1000B0000007000201000003040600000000000029
:1000C0000000590611241FBECFEFD8E0DEBFCDBF20
:1000D00011E0A0E0B1E0EAEBFFE002C005900D9274
:1000E000A837B107D9F722E0A8E7B1E001C01D9217
:1000F000A53DB207E1F710E0C2E6D0E004C02197C9
:10010000FE010E94D507C136D107C9F70E94A0069B
:100110000C94B0070C940000E091B302F091B4028B
:100120000190F081E02D682F83EB92E0099485ED3A
:100130008093BC008091BC0084FDFCCF1092F9013B
:1001400008950895E091AF01F091B001309729F042
:100150001092AE011092AD0109940895CF93DF93F0
:10016000AC01E091AB01F091AC013097F1F09091CE
:10017000AA018091A9019817C0F090E0292F30E0E2
:100180002617370754F4D901A757BE4FEA01C20F0B
:10019000D31F88818C939F5FF1CF1092AA01609347
:1001A000A901CB01DF91CF910994DF91CF910895FF
:1001B0000895E091AA018091A901E81730F4F0E0D8
:1001C000E757FE4F808190E008958FEF9FEF0895ED
:1001D0009091AA018091A901981750F4E92FF0E0BD
:1001E000E757FE4F208130E09F5F9093AA0102C045
:1001F0002FEF3FEFC90108958091A90190E0209170
:10020000AA01821B91090895CA01413288F4209104
:10021000F901243069F44093D301FB0141EB51E033
:10022000DA012A2F241B281718F421912D93F9CFD6
:1002300008958091F901843029F481E08093D301FD
:100240006093B10181E090E008950F931F93CF93E5
:10025000DF93FC01A685B7858D01005C1F4FE80187
:100260008881998101968F739927AD014E5B5F4F0D
:10027000EA012881398182179307D1F3E8012881A7
:100280003981A20FB31F6C93A685B785A05CBF4FC1
:1002900011969C938E93A689B7892C9181E090E06A
:1002A000078C02C0880F991F0A94E2F7822B8C9367
:1002B00081E081A30488F589E02D808180648083BA
:1002C00081E090E0DF91CF911F910F910895FC01A3
:1002D00081A1882329F0A489B5898C9186FFFBCF61
:1002E00011A20895FC01A485B585FD01E05CFF4FD6
:1002F000208131813296808191812817390779F0E8
:1003000080819181A80FB91F8C91208131812F5F4D
:100310003F4F2F7333273183208390E008958FEF71
:100320009FEF0895DC011C96ED91FC911D97DF0174
:10033000A05CBF4F2D913C91119712968D919C918D
:1003400011972817390739F08D919C91E80FF91F03
:10035000808190E008958FEF9FEF0895FC01248540
:100360003585F901E05CFF4F8081918132962081D3
:100370003181821B930B8F739927089583EB92E051
:100380000C94AE01CF92DF92EF92FF920F931F93E6
:10039000CF93DF936C01EB017B01E40EF51E00E0CF
:1003A00010E0CE15DF0561F06991D601ED91FC9169
:1003B0000190F081E02DC6010995080F191FF1CFBA
:1003C000C801DF91CF911F910F91FF90EF90DF90C7
:1003D000CF900895833081F028F4813099F08230F5
:1003E000A1F008958630A9F08730B9F08430D1F4B7
:1003F000809180008F7D03C0809180008F778093F3
:100400008000089584B58F7702C084B58F7D84BD48
:1004100008958091B0008F7703C08091B0008F7DE8
:100420008093B0000895CF93DF93282F30E0F90137
:10043000E255FF4F8491F901E656FF4FD491F9013F
:10044000EA57FF4FC491CC2391F081110E94EA0139
:10045000EC2FF0E0EE0FFF1FE458FF4FA591B49191
:10046000EC91ED2381E090E021F480E002C080E097
:1004700090E0DF91CF9108951F93CF93DF93282FC2
:1004800030E0F901E255FF4F8491F901E656FF4F44
:10049000D491F901EA57FF4FC491CC23C9F0162F2C
:1004A00081110E94EA01EC2FF0E0EE0FFF1FEE58E1
:1004B000FF4FA591B4918FB7F894111105C09C918D
:1004C000ED2FE095E92302C0EC91ED2BEC938FBF6B
:1004D000DF91CF911F910895CF93DF9390E0FC01BE
:1004E000E656FF4F2491FC01EA57FF4F8491882381
:1004F00061F190E0880F991FFC01E859FF4FC59109
:10050000D491FC01EE58FF4FA591B491611109C03F
:100510009FB7F8948881209582238883EC912E23BD
:100520000BC0623061F49FB7F8943881822F8095B8
:1005300083238883EC912E2B2C939FBF06C08FB70B
:10054000F894E8812E2B28838FBFDF91CF910895F7
:100550003FB7F8948091850190918601A091870121
:10056000B091880126B5A89B05C02F3F19F00196D0
:10057000A11DB11D3FBFBA2FA92F982F8827820F29
:10058000911DA11DB11DBC01CD0142E0660F771F79
:10059000881F991F4A95D1F70895CF92DF92EF9265
:1005A000FF92CF93DF936B017C010E94A802EB01C5
:1005B000C114D104E104F10479F00E94A8026C1B7B
:1005C0007D0B683E7340A0F381E0C81AD108E108B2
:1005D000F108C851DC4FECCFDF91CF91FF90EF9045
:1005E000DF90CF900895009769F0FC010190002002
:1005F000E9F73197AF01481B590BBC0183EB92E03F
:100600000C94C20180E090E008958F929F92AF9287
:10061000BF92EF92FF920F931F93CF93DF93CDB7CB
:10062000DEB7A1970FB6F894DEBF0FBECDBF162F71
:10063000042F19A2423008F40AE07E0121E2E20E02
:10064000F11C802E912CA12CB12C612FA5019401BD
:100650000E94B307029F1019112481E0E81AF108E3
:100660001A3014F4105D01C0195CF7011083122FC9
:10067000732FCA01232B242B252B39F7C7010E9486
:10068000F302A1960FB6F894DEBF0FBECDBFDF9187
:10069000CF911F910F91FF90EF90BF90AF909F90DF
:1006A0008F9008950F931F93CF93DF930E94F302CF
:1006B000EC018DE00E948C008C018AE00E948C008D
:1006C000C00FD11F8C0F9D1FDF91CF911F910F91F4
:1006D0000895CF92DF92EF92FF92CF93DF936C0158
:1006E000990FEE08FF08F7FE12C08DE20E948C0001
:1006F000EC0166277727CB016C197D098E099F09CC
:100700004AE00E9405037C01EC0EFD1E06C04AE093
:10071000C701B6010E9405037C018DE00E948C0098
:10072000EC018AE00E948C00EC0EFD1E8E0D9F1DD8
:10073000DF91CF91FF90EF90DF90CF900895CF920F
:10074000DF92EF92FF920F931F93CF93DF938C0171
:1007500080917A0190917B010230110549F48091DA
:100760007801909179016130710509F06DC05EC02A
:100770006130710509F068C0C1E0D0E0019709F46B
:10078000C0E080E291E00E94F3026801012E000CBB
:10079000EE08FF08F7FE12C08DE20E948C0066276B
:1007A0007727CB016C197D098E099F094AE00E94C9
:1007B000050348E0E42E53E0F52E0CC028E0E22EBD
:1007C00033E0F32E4AE0B801012E000C880B990BA0
:1007D0000E94050388E291E00E94F302CE010E948C
:1007E00069036C2F8F2D0E943C026C2F8E2D0E946E
:1007F0003C020130110529F4C0937A01D0937B01AA
:1008000007C00230110521F4C0937801D09379011B
:100810006CE271E080E090E0DF91CF911F910F9149
:10082000FF90EF90DF90CF900C94CD02C1E0D0E02C
:10083000019709F4C0E080E291E00E94F30289E0B0
:10084000E82E94E0F92EBECFDF91CF911F910F914A
:10085000FF90EF90DF90CF9008959091A901809143
:10086000AA019817D9F18FE192E00E94E8009093D5
:100870007F0180937E0189E391E00E94F3028091E1
:100880007E0190917F010E94690380917E01909189
:100890007F010197029708F789E491E00E945203D3
:1008A00061E070E080917E0190917F010E949F0342
:1008B00081E090E090937D0180937C0161E08FE185
:1008C00092E00E9419018BE591E00E94F302809171
:1008D0007C0190917D010E946903BFCF08951F9212
:1008E0000F920FB60F9211242F933F934F935F9364
:1008F0006F937F938F939F93AF93BF93EF93FF93E8
:100900008091B900887F803609F49CC068F58832F0
:1009100009F45BC090F4803109F454C038F48823A2
:1009200009F4F3C0883009F44DC0F3C0883109F4EC
:100930004CC0803209F45DC0ECC0803409F468C05A
:1009400048F4803309F455C0883309F0E2C080933D
:10095000F801D5C0803509F44FC0883509F45DC071
:10096000883409F0D6C0D3C0883909F4C4C0A8F4CB
:10097000883709F467C038F4883609F463C08037D3
:1009800009F460C0C6C0883809F4B5C0803909F4DC
:100990005FC0803809F0BDC05BC0803B09F483C0F4
:1009A00038F4803A09F466C0883A09F47CC0B1C0D2
:1009B000803C09F4A4C0883C09F4A1C0883B09F438
:1009C00087C0A7C080911E0210C090911D02809127
:1009D0001C02981770F5E0911D0281E08E0F809344
:1009E0001D02F0E0E450FE4F80818093BB0085EC57
:1009F00083C08093F8018BC0E0911D0281E08E0FCF
:100A000080931D028091BB00F0E0E450FE4F808394
:100A100090911D0280911C026BC0E0911D0281E04B
:100A20008E0F80931D028091BB00F0E0E450FE4FDA
:100A300080838091FB0181116AC081E08093FA017B
:100A400084EA5EC083E08093F9011092F701CFCF72
:100A50008091F701803208F04EC0E091F70181E00B
:100A60008E0F8093F7018091BB00F0E0E952FE4FBA
:100A70008083BDCF8091F701803230F4E091F7019F
:100A8000F0E0E952FE4F10820E9497006091F7015A
:100A900070E0E091D501F091D60187ED91E00995E4
:100AA0001092F7012CC084E08093F9011092D401D8
:100AB0001092D301E091D101F091D201099580917A
:100AC000D301811105C081E08093D3011092B1015F
:100AD000E091D40181E08E0F8093D401F0E0EF54D7
:100AE000FE4F80818093BB009091D4018091D3010F
:100AF000981708F47CCF85E88093BC000AC085EC89
:100B00008093BC001092F90104C01092F8010E9479
:100B10009700FF91EF91BF91AF919F918F917F913E
:100B20006F915F914F913F912F910F900FBE0F905A
:100B30001F9018951F920F920FB60F9211242F93AA
:100B40003F938F939F93EF93FF9320916B0230918C
:100B50006C0280916D0290916E022817390731F472
:100B60008091C1008F7D8093C10014C0E0916D021F
:100B7000F0916E02E55DFD4F208180916D029091B4
:100B80006E0201968F73992790936E0280936D0287
:100B90002093C600FF91EF919F918F913F912F91EC
:100BA0000F900FBE0F901F9018951F920F920FB6C7
:100BB0000F9211242F934F935F938F939F93EF93F3
:100BC000FF938091C00082FD1CC02091C6008091DF
:100BD000AF029091B00201968F7399274091B102B4
:100BE0005091B2028417950771F0E091AF02F09135
:100BF000B002E159FD4F20839093B0028093AF0281
:100C000002C08091C600FF91EF919F918F915F91FB
:100C10004F912F910F900FBE0F901F9018951F921C
:100C20000F920FB60F9211242F933F938F939F93A0
:100C3000AF93BF938091810190918201A091830134
:100C4000B09184013091800123E0230F2D3720F4EF
:100C50000196A11DB11D05C026E8230F0296A11D16
:100C6000B11D209380018093810190938201A09314
:100C70008301B09384018091850190918601A091B8
:100C80008701B09188010196A11DB11D8093850156
:100C900090938601A0938701B0938801BF91AF9193
:100CA0009F918F913F912F910F900FBE0F901F90AA
:100CB0001895EFE1F2E01382128288EE93E0A0E053
:100CC000B0E084839583A683B78324E031E0318349
:100CD0002083E3EBF2E01382128284839583A68360
:100CE000B78384E191E0918380838FE692E09587DA
:100CF00084878BE292E09787868785EC90E0918BE2
:100D0000808B84EC90E0938B828B80EC90E0958BD1
:100D1000848B81EC90E0978B868B82EC90E0918FB6
:100D2000808F86EC90E0938F828F84E0848F83E0C5
:100D3000858F87E0868F85E0878F81E080A3089587
:100D4000789484B5826084BD84B5816084BD85B5A6
:100D5000826085BD85B5816085BD80916E008160B2
:100D600080936E0010928100809181008260809358
:100D7000810080918100816080938100809180005A
:100D80008160809380008091B10084608093B10085
:100D90008091B00081608093B00080917A0084607F
:100DA00080937A0080917A00826080937A008091AB
:100DB0007A00816080937A0080917A0080688093C5
:100DC0007A001092C100E091C702F091C80281E060
:100DD00090E09C010090D30202C0220F331F0A94BE
:100DE000E2F72083E091C302F091C4021082E09107
:100DF000C502F091C6022FEC20831092D402E0913C
:100E0000C902F091CA0240819C010090CF0202C049
:100E1000220F331F0A94E2F7242B2083E091C902AA
:100E2000F091CA0240819C010090D00202C0220FC2
:100E3000331F0A94E2F7242B2083E091C902F0913A
:100E4000CA0240819C010090D10202C0220F331FD0
:100E50000A94E2F7242B2083E091C902F091CA02A0
:100E600020810090D20202C0880F991F0A94E2F7F5
:100E700080958223808387E691E00E94520360E0A0
:100E80008CE00E946C0260E08BE00E946C0261E0EA
:100E900083E00E946C0261E084E00E946C0261E0E9
:100EA00088E00E946C0261E089E00E946C0288E0A8
:100EB0008093BA0082EA90E09093D2018093D101AE
:100EC0008EEA90E09093D6018093D5011092AA010A
:100ED0001092A9011092AE011092AD011092F90189
:100EE00081E08093FB011092FA0161E082E10E94AF
:100EF0003C0261E083E10E943C028091B9008E7F58
:100F00008093B9008091B9008D7F8093B90088E407
:100F10008093B80085E48093BC008DE294E09093C8
:100F2000AC018093AB0181E791E00E94520364E63B
:100F300070E080E090E00E94CD028CE00E941302FD
:100F4000BC0181E090E00E949F038BE00E941302AD
:100F5000BC0182E090E00E949F030E94BE01E7CFA7
:100F6000F8940C94DB07A1E21A2EAA1BBB1BFD010F
:100F70000DC0AA1FBB1FEE1FFF1FA217B307E40778
:100F8000F50720F0A21BB30BE40BF50B661F771FD0
:100F9000881F991F1A9469F76095709580959095B0
:100FA0009B01AC01BD01CF010895EE0FFF1F05901D
:0A0FB000F491E02D0994F894FFCFAE
:100FBA000000000019010401FC00E800D900D80073
:100FCA00000000002501C201AE0172019201670111
:100FDA00427574746F6E2000207072657373656455
:100FEA002073746174757320006461746120726582
:100FFA006365697665643A2000436F6D6D616E645E
:10100A0020726571756573742021006461746120B2
:10101A0073656E743A200053746172742E2E2E20FA
:08102A000052656164792100A8
:00000001FF
