:100000000C9462000C948A000C948A000C948A0070
:100010000C948A000C948A000C948A000C948A0038
:100020000C948A000C948A000C948A000C948A0028
:100030000C948A000C948A000C948A000C948A0018
:100040000C94C1030C948A000C9487030C944C0309
:100050000C948A000C948A000C948A000C948A00F8
:100060000C948A000C948A000000000024002700F1
:100070002A0000000000250028002B0000000000DE
:1000800023002600290004040404040404040202DA
:100090000202020203030303030301020408102007
:1000A0004080010204081020010204081020000012
:1000B0000007000201000003040600000000000029
:1000C00000000B0411241FBECFEFD8E0DEBFCDBF70
:1000D00011E0A0E0B1E0E6E8FAE002C005900D9280
:1000E000A433B107D9F721E0A4E3B1E001C01D9228
:1000F000AB3EB207E1F710E0C2E6D0E004C02197C2
:10010000FE010E943B05C136D107C9F70E94460493
:100110000C9416050C940000E091C901F091CA01FD
:100120000190F081E02D682F89EC91E00994089509
:100130000F931F93CF93DF93FC01A685B7858D01A5
:10014000005C1F4FE8018881998101968F73992780
:10015000AD014E5B5F4FEA01288139818217930719
:10016000D1F3E80128813981A20FB31F6C93A685D2
:10017000B785A05CBF4F11969C938E93A689B789D3
:100180002C9181E090E0078C02C0880F991F0A949F
:10019000E2F7822B8C9381E081A30488F589E02D1E
:1001A00080818064808381E090E0DF91CF911F9116
:1001B0000F910895FC0181A1882329F0A489B589B4
:1001C0008C9186FFFBCF11A20895FC01A485B58513
:1001D000FD01E05CFF4F2081318132968081918169
:1001E0002817390779F080819181A80FB91F8C9168
:1001F000208131812F5F3F4F2F733327318320833D
:1002000090E008958FEF9FEF0895DC011C96ED912B
:10021000FC911D97DF01A05CBF4F2D913C91119780
:1002200012968D919C9111972817390739F08D916D
:100230009C91E80FF91F808190E008958FEF9FEF68
:100240000895FC0124853585F901E05CFF4F80812C
:100250009181329620813181821B930B8F73992774
:10026000089589EC91E00C942101CF92DF92EF92F6
:10027000FF920F931F93CF93DF936C01EB017B01F0
:10028000E40EF51E00E010E0CE15DF0561F0699187
:10029000D601ED91FC910190F081E02DC601099508
:1002A000080F191FF1CFC801DF91CF911F910F9156
:1002B000FF90EF90DF90CF900895833081F028F485
:1002C000813099F08230A1F008958630A9F087300E
:1002D000B9F08430D1F4809180008F7D03C080918B
:1002E00080008F7780938000089584B58F7702C057
:1002F00084B58F7D84BD08958091B0008F7703C051
:100300008091B0008F7D8093B0000895CF93DF93EC
:10031000282F30E0F901E255FF4F8491F901E656AC
:10032000FF4FD491F901EA57FF4FC491CC2391F0CC
:1003300081110E945D01EC2FF0E0EE0FFF1FE458E9
:10034000FF4FA591B491EC91ED2381E090E021F471
:1003500080E002C080E090E0DF91CF9108951F938C
:10036000CF93DF93282F30E0F901E255FF4F8491BE
:10037000F901E656FF4FD491F901EA57FF4FC491B6
:10038000CC23C9F0162F81110E945D01EC2FF0E003
:10039000EE0FFF1FEE58FF4FA591B4918FB7F89461
:1003A000111105C09C91ED2FE095E92302C0EC915D
:1003B000ED2BEC938FBFDF91CF911F910895CF93D9
:1003C000DF9390E0FC01E656FF4F2491FC01EA57D1
:1003D000FF4F8491882361F190E0880F991FFC0101
:1003E000E859FF4FC591D491FC01EE58FF4FA591FC
:1003F000B491611109C09FB7F89488812095822338
:100400008883EC912E230BC0623061F49FB7F8947F
:100410003881822F809583238883EC912E2B2C9317
:100420009FBF06C08FB7F894E8812E2B28838FBF1B
:10043000DF91CF9108953FB7F89480913D0190915D
:100440003E01A0913F01B091400126B5A89B05C097
:100450002F3F19F00196A11DB11D3FBFBA2FA92F43
:10046000982F8827820F911DA11DB11DBC01CD01C0
:1004700042E0660F771F881F991F4A95D1F70895AC
:10048000009769F0FC0101900020E9F73197AF0176
:10049000481B590BBC0189EC91E00C94350180E0BC
:1004A00090E008958F929F92AF92BF92EF92FF9249
:1004B0000F931F93CF93DF93CDB7DEB7A1970FB6FE
:1004C000F894DEBF0FBECDBF162F042F19A2423005
:1004D00008F40AE07E0121E2E20EF11C802E912C4C
:1004E000A12CB12C612FA50194010E941905029F36
:1004F0001019112481E0E81AF1081A3014F4105D83
:1005000001C0195CF7011083122F732FCA01232B2E
:10051000242B252B39F7C7010E944002A1960FB664
:10052000F894DEBF0FBECDBFDF91CF911F910F9129
:10053000FF90EF90BF90AF909F908F900895CF92D3
:10054000DF92EF92FF920F931F93CF93DF938C0173
:100550002091360130913701029749F420913401FE
:10056000309135016130710509F08DC07BC061307B
:10057000710509F088C091E080E02130310509F46F
:1005800090E0C92FD82F80E191E00E9440026801DD
:10059000012E000CEE08FF08F7FE12C08DE20E944B
:1005A0008C0066277727CB016C197D098E099F097E
:1005B0004AE00E94520258E0E52E63E0F62E0CC09D
:1005C00038E0E32E43E0F42E4AE0B801012E000C9F
:1005D000880B990B0E94520288E191E00E94400230
:1005E0004AE0BE010D2E000C880B990B0E945202AE
:1005F0008DE00E948C008AE00E948C006C2F8F2D71
:100600000E94AF016C2F8E2D0E94AF0101301105A9
:1006100029F4D0933701C093360107C00230110589
:1006200021F4D0933501C09334010E941B02EB01E9
:100630002CE2C22EDD24D394E12CF12C0E941B026B
:100640006C1B7D0B683E734038F081E0C81AD108FE
:10065000E108F108C851DC4FC114D104E104F104F0
:1006600069F711C091E080E02130310509F490E094
:10067000C92FD82F80E191E00E94400289E0E82E46
:1006800094E0F92EA1CFDF91CF911F910F91FF90B0
:10069000EF90DF90CF9008951F920F920FB60F92B8
:1006A00011242F933F938F939F93EF93FF93209168
:1006B00081013091820180918301909184012817FA
:1006C000390731F48091C1008F7D8093C10014C03F
:1006D000E0918301F0918401EF5BFE4F20818091D6
:1006E00083019091840101968F73992790938401DF
:1006F000809383012093C600FF91EF919F918F918A
:100700003F912F910F900FBE0F901F9018951F9241
:100710000F920FB60F9211242F934F935F938F93E5
:100720009F93EF93FF938091C00082FD1CC02091A6
:10073000C6008091C5019091C60101968F739927DB
:100740004091C7015091C8018417950771F0E0915D
:10075000C501F091C601EB57FE4F20839093C6016F
:100760008093C50102C08091C600FF91EF919F91D7
:100770008F915F914F912F910F900FBE0F901F900F
:1007800018951F920F920FB60F9211242F933F933B
:100790008F939F93AF93BF938091390190913A01CA
:1007A000A0913B01B0913C013091380123E0230F2F
:1007B0002D3720F40196A11DB11D05C026E8230F99
:1007C0000296A11DB11D20933801809339019093A9
:1007D0003A01A0933B01B0933C0180913D0190917F
:1007E0003E01A0913F01B09140010196A11DB11DB4
:1007F00080933D0190933E01A0933F01B09340014F
:10080000BF91AF919F918F913F912F910F900FBE0C
:100810000F901F901895E9ECF1E01382128288EE98
:1008200093E0A0E0B0E084839583A683B78384E05F
:1008300091E09183808385E891E09587848781E4C6
:1008400091E09787868785EC90E0918B808B84EC94
:1008500090E0938B828B80EC90E0958B848B81EC85
:1008600090E0978B868B82EC90E0918F808F86EC66
:1008700090E0938F828F84E0848F83E0858F87E080
:10088000868F85E0878F81E080A30895789484B572
:10089000826084BD84B5816084BD85B5826085BD7C
:1008A00085B5816085BD80916E00816080936E000A
:1008B00010928100809181008260809381008091FC
:1008C00081008160809381008091800081608093AD
:1008D00080008091B10084608093B1008091B0006D
:1008E00081608093B00080917A00846080937A0068
:1008F00080917A00826080937A0080917A00816092
:1009000080937A0080917A00806880937A001092B8
:10091000C100E091DD01F091DE0181E090E09C01F9
:100920000090E90102C0220F331F0A94E2F72083EE
:10093000E091D901F091DA011082E091DB01F091B0
:10094000DC012FEC20831092EA01E091DF01F091AD
:10095000E00140819C010090E50102C0220F331F9D
:100960000A94E2F7242B2083E091DF01F091E0016B
:1009700040819C010090E60102C0220F331F0A94BF
:10098000E2F7242B2083E091DF01F091E001408128
:100990009C010090E70102C0220F331F0A94E2F786
:1009A000242B2083E091DF01F091E0012081009071
:1009B000E80102C0880F991F0A94E2F7809582230C
:1009C000808389E291E00E9440028DE00E948C00C9
:1009D0008AE00E948C0060E08CE00E94DF0160E011
:1009E0008BE00E94DF0161E083E00E94DF0161E0B3
:1009F00084E00E94DF0161E088E00E94DF0161E0A5
:100A000089E00E94DF018CE00E948601BC0181E048
:100A100090E00E949F028BE00E948601BC0182E070
:100A200090E00E949F020E943101EDCFF8940C9457
:100A30004105A1E21A2EAA1BBB1BFD010DC0AA1F76
:100A4000BB1FEE1FFF1FA217B307E407F50720F037
:100A5000A21BB30BE40BF50B661F771F881F991FB2
:100A60001A9469F760957095809590959B01AC01FB
:100A7000BD01CF010895EE0FFF1F0590F491E02D09
:060A80000994F894FFCF79
:100A860000000000980035012101E5000501DA00AB
:100A9600427574746F6E200020707265737365649E
:100AA60020737461747573200053746172742E2EF2
:040AB6002E200000EE
:00000001FF
