:100000000C94E3000C940B010C940B010C940B0169
:100010000C940B010C940B010C940B010C940B0130
:100020000C940B010C940B010C940B010C940B0120
:100030000C940B010C940B010C940B010C940B0110
:100040000C94FA040C940B010C942B040C94F00304
:100050000C940B010C940B010C940B010C940B01F0
:100060000C940B010C940B010000000024002700ED
:100070002A0000000000230026002900005EBCE2E8
:10008000613FDD83C29C7E20A3FD1F419DC3217F74
:10009000FCA2401E5F01E3BD3E6082DC237D9FC168
:1000A000421CFEA0E1BF5D0380DE3C62BEE0025C5C
:1000B000DF81633D7C22C09E1D43A1FF4618FAA448
:1000C00027799BC584DA3866E5BB5907DB85673934
:1000D000BAE406581947A5FB7826C49A653BD98728
:1000E000045AB8E6A7F91B45C6987A24F8A6441A1C
:1000F00099C7257B3A6486D85B05E7B98CD2306E08
:10010000EDB3510F4E10F2AC2F7193CD114FADF3F3
:10011000702ECC92D38D6F31B2EC0E50AFF1134DE7
:10012000CE90722C6D33D18F0C52B0EE326C8ED0DB
:10013000530DEFB1F0AE4C1291CF2D73CA947628C7
:10014000ABF517490856B4EA6937D58B5709EBB5B3
:1001500036688AD495CB2977F4AA4816E9B7550BA7
:1001600088D6346A2B7597C94A14F6A8742AC8969B
:10017000154BA9F7B6E80A54D7896B350000000083
:10018000250028002B0004040404040404040202D3
:100190000202020203030303030301020408102006
:1001A0004080010204081020010204081020000011
:1001B0000007000201000003040600000000000028
:1001C0000000060DEE0C11241FBECFEFD8E0DEBFFD
:1001D000CDBF11E0A0E0B1E0E0E2F5E202C00590A1
:1001E0000D92A63BB107D9F723E0A6EBB1E001C021
:1001F0001D92A430B207E1F710E0C2EED0E004C0D7
:100200002197FE010E947D12C13ED107C9F70E94CD
:10021000F8090C94A60D0C9400000F931F93CF9334
:10022000DF93FC01A685B7858D01005C1F4FE801B7
:100230008881998101968F739927AD014E5B5F4F3D
:10024000EA012881398182179307D1F3E8012881D7
:100250003981A20FB31F6C93A685B785A05CBF4FF1
:1002600011969C938E93A689B7892C9181E090E09A
:10027000078C02C0880F991F0A94E2F7822B8C9397
:1002800081E081A30488F589E02D808180648083EA
:1002900081E090E0DF91CF911F910F910895FC01D3
:1002A00081A1882329F0A489B5898C9186FFFBCF91
:1002B00011A20895FC01A485B585FD01E05CFF4F06
:1002C000208131813296808191812817390779F018
:1002D00080819181A80FB91F8C91208131812F5F7E
:1002E0003F4F2F7333273183208390E008958FEFA2
:1002F0009FEF0895DC011C96ED91FC911D97DF01A5
:10030000A05CBF4F2D913C91119712968D919C91BD
:1003100011972817390739F08D919C91E80FF91F33
:10032000808190E008958FEF9FEF0895FC01248570
:100330003585F901E05CFF4F808191813296208103
:100340003181821B930B8F739927089581E592E089
:100350000C949601CF92DF92EF92FF920F931F932E
:10036000CF93DF936C01EB017B01E40EF51E00E0FF
:1003700010E0CE15DF0561F06991D601ED91FC9199
:100380000190F081E02DC6010995080F191FF1CFEA
:10039000C801DF91CF911F910F91FF90EF90DF90F7
:1003A000CF9008953FB7F8948091BB019091BC0124
:1003B000A091BD01B091BE0126B5A89B05C02F3FFD
:1003C00019F00196A11DB11D3FBFBA2FA92F982F7B
:1003D0008827820F911DA11DB11DBC01CD0142E0F6
:1003E000660F771F881F991F4A95D1F70895FC0162
:1003F000808191810C943E0EFC0124813581232B58
:1004000031F421E061157105A1F0FB0108C0FC0188
:10041000808191816115710531F421E0FC018081B9
:10042000882339F005C00E94A90F21E0892B09F02B
:1004300020E0822F08950F931F93CF93DF93EC0159
:1004400088819981009729F02A813B8126173707F7
:1004500088F48B016F5F7F4F0E94D60E009761F08A
:10046000998388831B830A832C813D81232B11F47C
:10047000FC01108281E001C080E0DF91CF911F91EB
:100480000F910895EF92FF920F931F93CF93DF93F5
:1004900000D0CDB7DEB78C0169831A82FC01E480FD
:1004A000F580FFEFEF1AFF0AB7010E941B028823B5
:1004B00081F0F8012081318184819581BE016F5FD7
:1004C0007F4F820F931F0E94B20FF801F582E482E2
:1004D00081E00F900F90DF91CF911F910F91FF90CE
:1004E000EF900895EF92FF920F931F93CF93DF93B6
:1004F000EC017B018A01BA010E941B02288139812B
:1005000081110DC02115310519F0C9010E943E0E5F
:10051000198218821D821C821B821A8206C01D83CA
:100520000C83B701C9010E94B20FCE01DF91CF91B8
:100530001F910F91FF90EF900895CF93DF93EC01FF
:100540006115710559F0FB0101900020E9F7319721
:10055000AF01461B570B0E9472020CC08881998123
:10056000009711F00E943E0E198218821D821C8293
:100570001B821A82CE01DF91CF9108956F927F92F4
:100580008F929F92AF92BF92CF92DF92EF92FF92A3
:100590000F931F93CF93DF9300D0CDB7DEB78C01BD
:1005A0007A01FC018581968169837A830E946508BE
:1005B00069817A81882391F1F801858196810E9471
:1005C000140840E06EEBF801858196810E94D20705
:1005D00037015701F9E0AF0EB11CF8018580968014
:1005E00088E0C82ED12CEE24E394F12CC4010E94A3
:1005F00041088111FE28EE0CF1E0CF1AD108B1F7C5
:10060000F301F1923F01EA15FB0539F7F801858105
:1006100096810E94650891E0813009F090E0892F71
:100620000F900F90DF91CF911F910F91FF90EF905E
:10063000DF90CF90BF90AF909F908F907F906F9002
:100640000895CF93DF93CDB7DEB729970FB6F8940F
:10065000DEBF0FBECDBFFB012081203119F1AE01FD
:100660004F5F5F4F0E94BE02882379F068E0CE01A1
:1006700001960E94C5079985891307C008C0803478
:1006800058F08F3569F08F3769F080E00CC08D81AC
:100690008F33A9F78AE007C08F31B9F789E003C02B
:1006A0008BE001C08CE029960FB6F894DEBF0FBE38
:1006B000CDBFDF91CF910895EF92FF920F931F93DB
:1006C000CF93DF93CDB7DEB761970FB6F894DEBF57
:1006D0000FBECDBF8C01DC011596ED91FC911697F4
:1006E000138615861486DF011B9633961E92AE176D
:1006F000BF07E1F7F8011482FF24F394BE01665F9F
:100700007F4FD80115968D919C9116970E949B085A
:10071000882309F458C067E0CE010A960E94C507F5
:1007200099898913EBCFD8018C91811126C0159638
:100730008D919C9116970E946508BE01665F7F4F60
:10074000F801858196810E94140840E064EBD8018D
:1007500015968D919C9116970E94D207F80185817C
:1007600096810E944108E82ED80115968D919C91A2
:1007700016970E946508EE2019F1AE014F5F5F4F9A
:10078000BE01665F7F4FC8010E94BE02F801E18092
:10079000BE01665F7F4FC8010E9421038E1520F4C1
:1007A000D80111968C9106C0BE01665F7F4FC801CB
:1007B0000E942103F801818384818F5F84839ECF0F
:1007C000F801F082DACF61960FB6F894DEBF0FBE63
:1007D000CDBFDF91CF911F910F91FF90EF900895C2
:1007E0001F920F920FB60F9211242F933F938F9366
:1007F0009F93EF93FF932091090230910A02809119
:100800000B0290910C022817390731F48091C10036
:100810008F7D8093C10014C0E0910B02F0910C0217
:10082000E753FE4F208180910B0290910C020196BC
:100830008F73992790930C0280930B022093C6002C
:10084000FF91EF919F918F913F912F910F900FBE4C
:100850000F901F9018951F920F920FB60F921124B0
:100860002F934F935F938F939F93EF93FF93809179
:10087000C00082FD1CC02091C60080914D02909165
:100880004E0201968F73992740914F02509150026A
:100890008417950771F0E0914D02F0914E02E35FED
:1008A000FD4F208390934E0280934D0202C08091B1
:1008B000C600FF91EF919F918F915F914F912F9182
:1008C0000F900FBE0F901F901895FC012481358169
:1008D0006217730748F480819181009729F0FC0129
:1008E000E60FF71F8081089580E00895FC011182D2
:1008F000108213821282158214821682611571058C
:1009000051F0FB0101900020E9F73197AF01461B40
:10091000570B0C9472020895CF93DF9390E0FC0183
:10092000E656FE4F2491FC01EA57FE4F849188233E
:1009300061F190E0880F991FFC01E859FF4FC591C4
:10094000D491FC01E458FE4FA591B491611109C006
:100950009FB7F8948881209582238883EC912E2379
:100960000BC0623061F49FB7F8943881822F809574
:1009700083238883EC912E2B2C939FBF06C08FB7C7
:10098000F894E8812E2B28838FBFDF91CF910895B3
:10099000CF92DF92EF92FF92CF93DF936B017C01B6
:1009A0000E94D201EB01C114D104E104F10479F0F9
:1009B0000E94D2016C1B7D0B683E7340A0F381E066
:1009C000C81AD108E108F108C851DC4FECCFDF911B
:1009D000CF91FF90EF90DF90CF9008952FB7F894CC
:1009E0006091B7017091B8018091B9019091BA01FD
:1009F0002FBF08951F920F920FB60F9211242F93BD
:100A00003F938F939F93AF93BF938091B701909142
:100A1000B801A091B901B091BA013091B60123E0BB
:100A2000230F2D3720F40196A11DB11D05C026E826
:100A3000230F0296A11DB11D2093B6018093B7012B
:100A40009093B801A093B901B093BA018091BB0112
:100A50009091BC01A091BD01B091BE010196A11D74
:100A6000B11D8093BB019093BC01A093BD01B093D5
:100A7000BE01BF91AF919F918F913F912F910F90A8
:100A80000FBE0F901F90189508950895FC01908156
:100A90000180F281E02D892F809560FF12C0F894CB
:100AA0002281822382838181892B8183A2E2B0E02B
:100AB0001197F1F78281982B9283789486ED90E0DC
:100AC00011C0F8942281822382838181892B8183C2
:100AD000AEEFB0E01197F1F78281982B9283789472
:100AE0008EE090E00197F1F70895009769F0FC011E
:100AF00001900020E9F73197AF01481B590BBC0169
:100B000081E592E00C94AA0180E090E008958F9234
:100B10009F92AF92BF92EF92FF920F931F93CF934A
:100B2000DF93CDB7DEB7A1970FB6F894DEBF0FBE47
:100B3000CDBF162F042F19A2423008F40AE07E011F
:100B400021E2E20EF11C802E912CA12CB12C612F00
:100B5000A50194010E941012029F1019112481E036
:100B6000E81AF1081A3014F4105D01C0195CF7019D
:100B70001083122F732FCA01232B242B252B39F717
:100B8000C7010E947505A1960FB6F894DEBF0FBE8F
:100B9000CDBFDF91CF911F910F91FF90EF90BF904C
:100BA000AF909F908F9008950F931F93CF93DF93F3
:100BB000EC01162F60E0812F0E948C04612F70E001
:100BC000FB01E656FE4FE491E883FB01EA57FE4F36
:100BD000E491F0E0EE0FFF1FEE58FF4F85919491E6
:100BE0009A8389831B861D861C86FE013B968E0197
:100BF0000D5F1F4F1292E017F107E1F7DF91CF91E0
:100C00001F910F910895E6EBF1E02491E2EAF1E003
:100C10009491EEE8F1E0E491EE2309F43BC0222345
:100C200039F1233091F038F42130A9F0223001F568
:100C300024B52F7D12C0263091F02730A1F024304A
:100C4000B9F4209180002F7D03C0209180002F7780
:100C5000209380000DC024B52F7724BD09C02091BA
:100C6000B0002F7703C02091B0002F7D2093B000FB
:100C7000F0E0EE0FFF1FE458FE4FA591B4912FB79F
:100C8000F894EC91811103C090959E2301C09E2B96
:100C90009C932FBF0895E0915102F0915202019070
:100CA000F081E02D682F81E592E009940F931F9366
:100CB000CF93DF930E947505EC018DE00E944B06F7
:100CC0008C018AE00E944B06C00FD11F8C0F9D1F24
:100CD000DF91CF911F910F910895EF92FF920F93A3
:100CE0001F93CF93DF937C01C0E0D0E000E010E0E1
:100CF000F70184819581C817D90798F4BE01C7010F
:100D00000E946504E0915102F09152020190F0813D
:100D1000E02D682F81E592E00995080F191F2196B3
:100D2000E7CFC801DF91CF911F910F91FF90EF9016
:100D300008950C9475050F931F930E94EE04609321
:100D4000590270935A0280935B0290935C02E09187
:100D50005102F09152020680F781E02D81E592E088
:100D6000099597FF1FC00E94EE040091590210914F
:100D70005A0220915B0230915C02DC01CB01801BA6
:100D8000910BA20BB30B00915502109156022091CA
:100D900057023091580280179107A207B307B8F2A3
:100DA0008FEF9FEF1F910F9108954F925F926F9277
:100DB0007F928F929F92AF92BF92CF92DF92EF92EB
:100DC000FF92CF936B017C019B01AC010E94F71154
:100DD000882319F08AEA91E027C046015701E89478
:100DE000B7F82FEF3FEF4FE75FE7C501B4010E946F
:100DF000F71181110DC02FEF3FEF4FE75FE7C501FE
:100E0000B4010E94261018161CF48EEA91E00CC062
:100E10002FEF3FEF4FE75FE4C701B6010E94851156
:100E200018168CF482EB91E0CF91FF90EF90DF9059
:100E3000CF90BF90AF909F908F907F906F905F907A
:100E40004F900C9475052FEF3FEF4FE75FECC70114
:100E5000B6010E94261087FDE5CF20E030E0A90111
:100E6000C701B6010E94261087FF09C08DE20E94CB
:100E70004B065C01F7FAF094F7F8F09402C0A12C4D
:100E8000B12C2AE037ED43EA5BE3C701B6010E94CB
:100E9000BA0F2B013C010E94A4106B017C010E943F
:100EA000D3109B01AC01C301B2010E94B90F2B0109
:100EB0003C014AE0C701B6010E9487057C01EA0CAB
:100EC000FB1C88E291E00E947505E80EF91EC3E064
:100ED000C150C9F120E030E040E251E4C301B20169
:100EE0000E948A112B013C010E949D104B01770F3B
:100EF000AA08BB08B7FE13C08DE20E944B066C0126
:100F000088279927DC0188199909AA09BB094AE0B1
:100F1000BC01CD010E9487058C0D9D1D05C04AE0D6
:100F2000C501B4010E948705E80EF91EC501B40190
:100F30000E94D5109B01AC01C301B2010E94B90F00
:100F40002B013C01C5CFC701CF91FF90EF90DF90FF
:100F5000CF90BF90AF909F908F907F906F905F9059
:100F60004F90089584E480937C0080917A0080649F
:100F700080937A0080917A0086FDFCCF8091780082
:100F80002091790090E0922B0895DC01E0E061501F
:100F900038F08D91E827F0E0E458FF4FE491F7CF67
:100FA0008E2F0895CF92DF92EF92FF920F931F93AF
:100FB000CF93DF931F92CDB7DEB76C01E62E08E02A
:100FC00010E0FF24F39461E08F2D8E2109F460E09E
:100FD000C60149830E944605FF0C01501109498151
:100FE0000115110581F7411115C0F894D60111962C
:100FF000ED91FC91129791818C9180958923818349
:101000001196ED91FC91129792818C918095892394
:10101000828378940F90DF91CF911F910F91FF9071
:10102000EF90DF90CF900895CF92DF92EF92FF92F2
:101030000F931F93CF93DF931F92CDB7DEB78C0131
:10104000F62E40E065E579830E94D207CF2C7981A6
:10105000D72E760188E0E80EF11CF60161916F0150
:1010600040E0C8010E94D207CE14DF04B1F70F9010
:10107000DF91CF911F910F91FF90EF90DF90CF9074
:101080000895FC0190810180F281E02DF894818126
:10109000892B81832281892F809528232283A6E0B2
:1010A000B0E01197F1F7218182238183A2E2B0E0C1
:1010B0001197F1F780817894EEECF0E03197F1F739
:1010C000982381E009F480E00895FC01908101807B
:1010D000F281E02DF8948181292F2095822381834C
:1010E00078948DE742E050E0815021F1DA011197C8
:1010F000F1F730813923C1F3F8948281822382830E
:101100008181892B81837894AAE7B7E01197F1F761
:10111000F894818128232183A2E1B1E01197F1F7AE
:101120008081982381E009F080E07894E2E6F6E09F
:101130003197F1F70895AF92BF92CF92DF92EF927D
:10114000FF920F931F93CF93DF931F92CDB7DEB71C
:101150005C01D62EE72EFC018585811105C0C501F5
:101160000E946508811106C0F50113861586148654
:1011700080E065C040E060EFC5010E94D20701E059
:10118000F12CC12C11E0C5010E944108682FC50156
:1011900069830E9441086981613019F48130B9F492
:1011A00033C04F2D50E068131BC0F501838518171D
:1011B00030F4E40FF51F8381802349F402C018172F
:1011C00031F060E0193058F4F501148708C0F501DA
:1011D000EF0DF11D8381802B838361E009C0C12E57
:1011E000F501E40FF51F9381802F80958923838378
:1011F000C5010E9446051F5F000F11F4F39401E042
:10120000F7E0FF1508F0BFCF113408F4ADCFF501BA
:10121000C386C11002C081E08587F50183818823E0
:1012200009F4A2CFD5011396ED2DFE2D9501255F72
:101230003F4F8D918193A217B307D9F781E00F90AB
:10124000DF91CF911F910F91FF90EF90DF90CF90A2
:10125000BF90AF900895EF92FF920F931F93CF939B
:10126000DF93CDB7DEB761970FB6F894DEBF0FBE40
:10127000CDBF7C01062FDC011596ED91FC911697F0
:10128000138615861486DF011B9633961E92AE17C1
:10129000BF07E1F710E0BE01665F7F4FF701858170
:1012A00096810E949B08882369F0101308C067E0AC
:1012B000CE010A960E94C5079989891741F01F5FE0
:1012C000011748F760E070E08EEF92EC55C0AE0178
:1012D0004F5F5F4FBE01665F7F4FC7010E94BE0236
:1012E000882309F446C068E0CE0101960E94C50734
:1012F000998589133EC0698188E0689FB0011124F7
:101300008A81282F30E0322F2227330F330F330FFB
:10131000262B372B8A85803151F5688570E08F81C7
:10132000AB01481B5109CA019695982F88279795BC
:1013300087950E94FC1160517109207F53E0220FB4
:10134000331F5A95E1F7620F731F613854EE75072A
:101350000CF4B8CF072E000C880B990B0E94D51007
:1013600020E030E040E05CE30E948A1105C0B90152
:10137000ECCF60E874EEE9CF61960FB6F894DEBF6B
:101380000FBECDBFDF91CF911F910F91FF90EF90D6
:101390000895CF93DF93EC018D819E810E946508B3
:1013A00040E06CEC8D819E810E94D207488164E40C
:1013B0008D819E810E94D2078A818823B1F0E981C4
:1013C000E950E33040F4F0E0EE0FFF1FEA5FFE4F1C
:1013D0006081718102C06EEE72E0072E000C880BF6
:1013E000990BDF91CF910C94C804DF91CF910895B0
:1013F000CF93DF93CDB7DEB765970FB6F894DEBF16
:101400000FBECDBF789484B5826084BD84B5816001
:1014100084BD85B5826085BD85B5816085BD8091BF
:101420006E00816080936E00109281008091810037
:10143000826080938100809181008160809381002F
:10144000809180008160809380008091B1008460F1
:101450008093B1008091B00081608093B000809152
:101460007A00846080937A0080917A008260809311
:101470007A0080917A00816080937A0080917A006E
:10148000806880937A001092C100E0916502F0912B
:10149000660281E090E09C010090710202C0220F80
:1014A000331F0A94E2F72083E0916102F091620217
:1014B0001082E0916302F09164022FEC208310927D
:1014C0007202E0916702F091680240819C010090F5
:1014D0006D0202C0220F331F0A94E2F7242B2083EF
:1014E000E0916702F091680240819C0100906E02D9
:1014F00002C0220F331F0A94E2F7242B2083E091CD
:101500006702F091680240819C0100906F0202C066
:10151000220F331F0A94E2F7242B2083E091670205
:10152000F091680220810090700202C0880F991F1C
:101530000A94E2F78095822380838CE191E00E94F7
:10154000560685EB92E00E945C0384E992E00E94DB
:101550005C0383E792E00E945C0360E08EE00E94FF
:101560008C0460E082E10E948C048AE291E00E9497
:10157000560661E088E00E948C0481E00E94030628
:1015800068E873E180E090E00E94C8040E94EE04E5
:101590000E94EE040E94D3101B012C01A12CB12C3F
:1015A00000E010E00E94B207181619061CF40E9411
:1015B000B20705C00E94B207919581959109909359
:1015C000C8018093C701BC01990F880B990B0E9439
:1015D000D51020E030E040E85AE30E948A1120E074
:1015E00030E44CE955E40E948A116093C301709382
:1015F000C4018093C5019093C60120E030E44CE122
:1016000055E40E94B90F20E030E044E852E40E9423
:101610002B103B014C01CB01D4018093BF0190936F
:10162000C001A093C101B093C2019501A801B3010B
:10163000C4010E948511181614F4530184010E94FC
:10164000EE040E94D310A20191010E94B90F20E084
:1016500030E040EA51E40E94261018160CF0A2CFA8
:101660008EE391E00E94990681E491E00E94990640
:1016700023EF34E045EB5FE3B501C8010E942B1076
:101680000E94D50680E591E00E94560685EB92E027
:101690000E94C90910E0612F85EB92E00E942B099E
:1016A0006B017C0120E030E040EA50EC0E948511A3
:1016B00087FD1AC020E030E044E352E4C701B601E0
:1016C0000E942610181684F08EE391E00E9499067D
:1016D00083E591E00E949906C701B6010E94D506F4
:1016E00085E691E00E9456061F5F1330A1F684E95B
:1016F00092E00E94C90910E0612F84E992E00E9403
:101700002B096B017C0120E030E040EA50EC0E94A4
:10171000851187FD1AC020E030E044E352E4C701A0
:10172000B6010E942610181684F08EE391E00E9404
:1017300099068CE691E00E949906C701B6010E94C5
:10174000D50685E691E00E9456061F5F1330A1F68C
:1017500083E792E00E94C90910E0612F83E792E0DD
:101760000E942B096B017C0120E030E040EA50EC44
:101770000E94851187FD1AC020E030E044E352E466
:10178000C701B6010E942610181684F08EE391E07E
:101790000E9499068EE791E00E949906C701B60162
:1017A0000E94D50685E691E00E9456061F5F133021
:1017B000A1F664EF71E080E090E00E94C8048DE83B
:1017C00091E00E94560681E592E00E944F0169E295
:1017D00071E089EF92E00E949D0269E271E082EF80
:1017E00092E00E949D0269E271E08BEE92E00E941D
:1017F0009D0269E271E0CE010F960E94760469E2D3
:1018000071E0CE0108960E94760481E592E00E9484
:101810009601892BD1F381E592E00E94960118167A
:101820001906E4F569E271E0CE0101960E947604A2
:101830000E949B0697FD06C0682FCE0101960E946C
:101840004202F6CF88859985009791F04A855B859D
:101850002D813E814217530748F069817A810E94A9
:10186000B20F8D819E819D878C8712C00E943E0E93
:1018700089819A81998788878B819C819B878A87B8
:101880008D819E819D878C871A8219821C821B8282
:101890001E821D82CE0101960E94F70169E271E06D
:1018A000CE0108960E94FC01811166C0E12CF12C4A
:1018B00000E010E08C859D85E816F906A0F4B701DC
:1018C000CE0108960E946504682F803239F0011518
:1018D000110509F05CC089EF92E07DC0011511058A
:1018E00009F474C06CC069E271E082EF92E00E947A
:1018F000FC01811141C069E271E0CE0101960E94B4
:1019000076046BE971E082EF92E00E94FC0188238B
:10191000C9F063EA71E08BEE92E00E94FC0188233B
:1019200041F063EA71E0CE0101960E949D0281E0E0
:1019300007C066EA71E0CE0101960E949D0280E038
:101940000E94030689EF92E00E946D068EE491E00A
:101950000E949906CE0101960E946D068DE00E94BC
:101960004B068AE00E944B0681E592E00E944F01FF
:10197000CE0101960E94F701CE0108960E94F70160
:10198000CE010F960E94F7010E94A601FFCD8A3377
:1019900021F00130110529F415C00130110529F499
:1019A00008C06D3041F06A3031F00230110519F491
:1019B00010C002E010E08FEFE81AF80A7BCF013088
:1019C000110599F782EF92E00E94420201E010E0D7
:1019D000F2CF8BEE92E00E944202EDCF86ED92E0D4
:1019E0000E94F7018DED92E00E94F70184EE92E0F3
:1019F0000E94F7018BEE92E00E94F70182EF92E0E5
:101A00000E94F70189EF92E00C94F7010F931F9366
:101A1000CF93DF93E1E5F2E01382128288EE93E048
:101A2000A0E0B0E084839583A683B78380E191E052
:101A3000918380838DE092E09587848789EC91E0A3
:101A40009787868785EC90E0918B808B84EC90E083
:101A5000938B828B80EC90E0958B848B81EC90E073
:101A6000978B868B82EC90E0918F808F86EC90E054
:101A7000938F828F84E0848F83E0858F87E0868FC9
:101A800085E0878FC1E0C0A36FE371E089EF92E04A
:101A90000E94760469E271E082EF92E00E9476048F
:101AA00069E271E08BEE92E00E9476046FE371E0F0
:101AB00084EE92E00E94760469E271E08DED92E09E
:101AC0000E94760469E271E086ED92E00E9476045D
:101AD00066E088EC92E00E94D405E5EBF2E004E4D5
:101AE00015E0128B018B88EC92E09683858314823B
:101AF0001082D9E0D183C283C38362E087EA92E097
:101B00000E94D405E4E9F2E0128B018B87EA92E0AF
:101B10009683858314821082D183C283C38363E05A
:101B200086E892E00E94D405E3E7F2E0128B018B95
:101B300086E892E09683858314821082D183C283E3
:101B4000C383DF91CF911F910F910895F8940C9466
:101B50008312CF93DF938230910510F482E090E0FE
:101B6000E0910203F091030320E030E0C0E0D0E018
:101B7000309711F14081518148175907C0F048173B
:101B8000590761F482819381209719F09B838A839E
:101B90002BC0909303038093020326C021153105C7
:101BA00019F04217530718F49A01BE01DF01EF0143
:101BB0000280F381E02DDCCF2115310509F1281BCE
:101BC000390B2430310590F412968D919C91139726
:101BD0006115710521F0FB019383828304C090930A
:101BE000030380930203FD01329644C0FD01E20F1E
:101BF000F31F81939193225031092D933C933AC066
:101C00002091000330910103232B41F42091020124
:101C100030910301309301032093000320910001D0
:101C2000309101012115310541F42DB73EB74091A6
:101C3000040150910501241B350BE0910003F09144
:101C40000103E217F307A0F42E1B3F0B28173907F7
:101C500078F0AC014E5F5F4F2417350748F04E0F08
:101C60005F1F50930103409300038193919302C03F
:101C7000E0E0F0E0CF01DF91CF9108950F931F9343
:101C8000CF93DF93009709F48CC0FC013297138245
:101C9000128200910203109103030115110581F4D2
:101CA00020813181820F931F209100033091010325
:101CB0002817390779F5F0930103E093000371C009
:101CC000D80140E050E0AE17BF0750F412962D91B6
:101CD0003C911397AD012115310509F1D901F3CFDD
:101CE0009D01DA013383228360817181860F971F02
:101CF0008217930769F4EC0128813981260F371F79
:101D00002E5F3F4F318320838A819B81938382831F
:101D1000452B29F4F0930303E093020342C013968A
:101D2000FC93EE931297ED01499159919E01240F76
:101D3000351FE217F30771F480819181840F951F9D
:101D4000029611969C938E938281938113969C9315
:101D50008E931297E0E0F0E0D80112968D919C915D
:101D60001397009719F0F8018C01F6CF8D919C9193
:101D700098012E5F3F4F820F931F209100033091F7
:101D800001032817390769F4309729F410920303E7
:101D90001092020302C01382128210930103009377
:101DA0000003DF91CF911F910F910895A0E0B0E063
:101DB000ECEDFEE00C943612EC01009721F4CB011F
:101DC0000E94A90DB8C0FC01E60FF71F9C0122502C
:101DD0003109E217F30708F4ACC0D9010D911C9149
:101DE000119706171707B0F00530110508F49FC0CA
:101DF000C80104978617970708F499C00250110983
:101E0000061B170B019311936D937C93CF010E94D6
:101E10003E0E8DC05B01A01AB10A4C01800E911ECE
:101E2000A0910203B091030340E050E0E12CF12CBB
:101E3000109709F44AC0A815B905D1F56D907C90AA
:101E40001197630182E0C80ED11CCA14DB0480F133
:101E5000A3014A195B096A0182E0C80ED11C1296DF
:101E6000BC9012971396AC91B5E0CB16D10440F01C
:101E7000B282A38351834083D9016D937C930AC0BE
:101E80000E5F1F4FC301800F911FF9019183808363
:101E9000EB2DFA2FE114F10431F0D7011396FC93E6
:101EA000EE93129744C0F0930303E09302033FC004
:101EB0008D919C9111974817590708F4AC017D0149
:101EC00012960D90BC91A02DB3CF809100039091FC
:101ED000010388159905E1F446175707C8F4809166
:101EE000000190910101009741F48DB79EB7409198
:101EF000040150910501841B950BE817F907C8F4FC
:101F0000F0930103E0930003F901718360830FC034
:101F1000CB010E94A90D7C01009759F0A801BE01D8
:101F20000E94A00FCE010E943E0EC70104C0CE0148
:101F300002C080E090E0CDB7DEB7EEE00C94521224
:101F4000FB01DC0102C001900D9241505040D8F7D6
:101F50000895FB01DC018D91019080190110D9F3E6
:101F6000990B0895FB01DC0101900D920020E1F72F
:101F700008955058BB27AA270E94D10F0C944B11EB
:101F80000E943D1138F00E94441120F039F49F3F27
:101F900019F426F40C943A110EF4E095E7FB0C9436
:101FA0003411E92F0E945C1158F3BA1762077307C6
:101FB0008407950720F079F4A6F50C947E110EF4B1
:101FC000E0950B2EBA2FA02D0B01B90190010C0149
:101FD000CA01A0011124FF27591B99F0593F50F461
:101FE000503E68F11A16F040A22F232F342F4427B9
:101FF000585FF3CF469537952795A795F0405395B1
:10200000C9F77EF41F16BA0B620B730B840BBAF080
:102010009150A1F0FF0FBB1F661F771F881FC2F7EB
:102020000EC0BA0F621F731F841F48F487957795FF
:102030006795B795F7959E3F08F0B0CF9395880FB9
:1020400008F09927EE0F9795879508950E94101133
:1020500008F481E008950E943F100C944B110E94F7
:10206000441158F00E943D1140F029F45F3F29F0DF
:102070000C94341151110C947F110C943A110E945C
:102080005C1168F39923B1F3552391F3951B550B1C
:10209000BB27AA2762177307840738F09F5F5F4F3B
:1020A000220F331F441FAA1FA9F335D00E2E3AF07A
:1020B000E0E832D091505040E695001CCAF72BD092
:1020C000FE2F29D0660F771F881FBB1F26173707E3
:1020D0004807AB07B0E809F0BB0B802DBF01FF2715
:1020E00093585F4F3AF09E3F510578F00C943411AD
:1020F0000C947F115F3FE4F3983ED4F38695779577
:102100006795B795F7959F5FC9F7880F911D9695CD
:10211000879597F90895E1E0660F771F881FBB1F29
:10212000621773078407BA0720F0621B730B840BD6
:10213000BA0BEE1F88F7E09508950E94A4106894EA
:10214000B1110C947F1108950E94641188F09F577B
:1021500098F0B92F9927B751B0F0E1F0660F771FCB
:10216000881F991F1AF0BA95C9F714C0B13091F0C1
:102170000E947E11B1E008950C947E11672F782F94
:102180008827B85F39F0B93FCCF386957795679586
:10219000B395D9F73EF490958095709561957F4FF2
:1021A0008F4F9F4F0895E89409C097FB3EF4909598
:1021B0008095709561957F4F8F4F9F4F9923A9F020
:1021C000F92F96E9BB279395F695879577956795AF
:1021D000B795F111F8CFFAF4BB0F11F460FF1BC0F3
:1021E0006F5F7F4F8F4F9F4F16C0882311F096E986
:1021F00011C0772321F09EE8872F762F05C0662334
:1022000071F096E8862F70E060E02AF09A95660FEC
:10221000771F881FDAF7880F9695879597F90895A5
:10222000990F0008550FAA0BE0E8FEEF16161706E7
:10223000E807F907C0F012161306E407F50798F04F
:10224000621B730B840B950B39F40A2661F0232B68
:10225000242B252B21F408950A2609F4A140A695E4
:102260008FEF811D811D089597F99F6780E870E0C9
:1022700060E008959FEF80EC089500240A941616FC
:10228000170618060906089500240A941216130664
:10229000140605060895092E0394000C11F48823F2
:1022A00052F0BB0F40F4BF2B11F460FF04C06F5F0E
:1022B0007F4F8F4F9F4F089557FD9058440F551FE4
:1022C00059F05F3F71F04795880F97FB991F61F0B8
:1022D0009F3F79F087950895121613061406551F2F
:1022E000F2CF4695F1DF08C0161617061806991F9B
:1022F000F1CF86957105610508940895E894BB2790
:1023000066277727CB0197F908950E94101108F4EA
:102310008FEF08950E949D110C944B110E943D1166
:1023200038F00E94441120F0952311F00C943411E0
:102330000C943A1111240C947F110E945C1170F3DB
:10234000959FC1F3950F50E0551F629FF001729F5A
:10235000BB27F00DB11D639FAA27F00DB11DAA1F69
:10236000649F6627B00DA11D661F829F2227B00DB6
:10237000A11D621F739FB00DA11D621F839FA00D41
:10238000611D221F749F3327A00D611D231F849F91
:10239000600D211D822F762F6A2F11249F575040E8
:1023A0009AF0F1F088234AF0EE0FFF1FBB1F661F63
:1023B000771F881F91505040A9F79E3F510580F02C
:1023C0000C9434110C947F115F3FE4F3983ED4F3E6
:1023D000869577956795B795F795E7959F5FC1F7D0
:1023E000FE2B880F911D9695879597F908950E9469
:1023F0001011880B990B089597FB072E16F4009483
:1024000007D077FD09D00E94691207FC05D03EF481
:10241000909581959F4F0895709561957F4F089590
:10242000A1E21A2EAA1BBB1BFD010DC0AA1FBB1FD8
:10243000EE1FFF1FA217B307E407F50720F0A21B4A
:10244000B30BE40BF50B661F771F881F991F1A94B7
:1024500069F760957095809590959B01AC01BD01E1
:10246000CF0108952F923F924F925F926F927F9289
:102470008F929F92AF92BF92CF92DF92EF92FF9294
:102480000F931F93CF93DF93CDB7DEB7CA1BDB0B40
:102490000FB6F894DEBF0FBECDBF09942A883988E5
:1024A00048885F846E847D848C849B84AA84B984EC
:1024B000C884DF80EE80FD800C811B81AA81B981F8
:1024C000CE0FD11D0FB6F894DEBF0FBECDBFED010C
:1024D0000895AA1BBB1B51E107C0AA1FBB1FA6176B
:1024E000B70710F0A61BB70B881F991F5A95A9F7BD
:1024F00080959095BC01CD010895EE0FFF1F0590CA
:10250000F491E02D099410E0C2EED0E004C0FE0189
:102510000E947D122196C33ED107C9F7F894FFCFE0
:102520000000040320005E00BC00770100000000F2
:102530000D01AA0196015A017A014F01537461728B
:1025400074696E672E2E2E2E2E00416363656E64B5
:102550006F207465726D6F7369666F6E69003330DA
:10256000003A43555252454E545F434153413A005D
:102570003A41003A54454D505F534F54544F5445DF
:1025800054544F3A003A266465673B003A54454D2F
:10259000505F444953494D5045474E4F3A003A54D5
:1025A000454D505F53414C4F54544F3A00303A47D9
:1025B00045545F434D443A303A58004845415445EC
:1025C0005253004F4E004F4646006E616E00696EDA
:0625D00066006F76660054
:00000001FF
